:100000000C949A030C94DE030C94DE030C94DE0330
:100010000C94DE030C94DE030C94DE030C94DE03DC
:100020000C94DE030C94DE030C94412B0C94132CE3
:100030000C9435210C94DE030C94DE030C94DE0347
:100040000C94DE030C94DE030C94DE030C94DE03AC
:100050000C94DE030C949C210C94DE030C94DE03C0
:100060000C94DE030C94DE030C94DE030C94DE038C
:100070000C94DE030C94DE030C94DE030C94DE037C
:100080000C94710E0C94DE030C94DE030C94DE03CE
:100090000C94DE030C94DE030C94DE030C94DE035C
:1000A0000C94DE030C94DE030C94DE0360057005F3
:1000B0008205AD0592059405A205DA059B179B17ED
:1000C000CA17CA170A182C187B197B1937187B19FD
:1000D000DE18DE18481950197B197619EB18EB1841
:1000E000EB18EB18EB18EB18EB18EB18EB18EB18F8
:1000F000EB18EB18EB18EB18EB18EB18FB180B19B7
:10010000121919192319782C9A2C852D9A2C852DC2
:10011000DC2CFF2C852D542D672D07634236B79BB1
:10012000D8A71A39685618AEBAAB558C1D3CB7CC57
:100130005763BD6DEDFD753EF6177231BF000000CF
:10014000803F08000000BE922449123EABAAAA2AB2
:10015000BECDCCCC4C3E00000080BEABAAAAAA3ECD
:1001600000000000BF000000803F00000000000809
:100170004178D3BB4387D1133D190E3CC3BD4282A6
:10018000AD2B3E68EC8276BED98FE1A93E4C80EF64
:10019000FFBE01C4FF7F3F00000000002B001400E1
:1001A0001A00090013000A000D000F0018001C00BF
:1001B00000712A00394504001500160017000700D9
:1001C0000B00110008000C001200027102551D0006
:1001D0001B000600190005000E0010003600370055
:1001E00001711255E000E200E30014702C43085442
:1001F00028002C440953290050004F002900140006
:100200001A000800150017001C0018000C0012004E
:1002100013002A00394504001600070009000A00EF
:100220000B000D000E000F000271007102551D0041
:100230001B000600190005001100100036003700F1
:1002400001711255E000E300E20014702C430854E1
:1002500028002C440953147050004F0014001A0059
:10026000090013000A0029002A000D000F001800E1
:100270001C00330004001500160017000700394564
:1002800034000B00110008000C0012001D001B00C0
:10029000060019000500025512550E001000360028
:1002A00037003800E000E200E3002C432A00E100C0
:1002B000E50028002C442F0030004F0035024A0092
:1002C00052004D004B00010001002D022E002D00B8
:1002D0002E022A000100500051004F004E00010084
:1002E0000100260227022F02300231020100C10064
:1002F000C200C300C400010001002F0030004C0503
:100300002903075101000100010001000100010063
:1003100001000100A8002F003000AE0035001E02D1
:100320001F022002210222022302240225022602A9
:1003300027022A0029001E001F00200021002200A1
:100340002300240025002600270031003A003B004E
:100350003C003D003E003F004000410042004300A1
:1003600044004500010001000100010001000100FE
:1003700001000100A800AA00A900AE000100F400DD
:10038000F000F500010001004B004A0052004D0052
:10039000010001000100F200F100F3000100010082
:1003A0004E00500051004F0001000100010001000B
:1003B0002F0030004C040100010001000100010089
:1003C0000100010001000100010001000100010025
:1003D0000100010001000100010001001E001E00DB
:1003E0001E001E001E001E001E001E001E001E001D
:1003F0001E001E00000014001A000800150017005F
:100400001C0018000C00120013002F000000040054
:100410001600070009000A000B000D000E000F0077
:100420003300340044700000000006001900000092
:10043000000011001000000000000000010000702A
:1004400001000100010001000100010001000100A4
:1004500001004C00010001000100157016701370BE
:100460000A703D703E703F704070010001001C70CA
:100470001B70187019701D701E70010001000100C2
:100480000100010001000100010001000100010064
:1004900001000100010001000100010001005108FC
:1004A000520850084F083B01010001000100010003
:1004B0000100A500010007081A0307093D093A01D8
:1004C00001000100010001000100010001000F080E
:1004D000B200A600B3003D040100010001000100CC
:1004E0000100010001000100010001000100010004
:1004F00001000100010001000100010001000100F4
:100500000100080015000100380024002500260025
:1005100046000100390001001600070009000A002A
:10052000250221002200230028002E0001000100E6
:1005300001000100010001002D001E001F0020002D
:100540005200010001000100010001002C00010027
:100550002E0227000100500051004F0028035400D4
:1005600068006500200050006C0061006E006300B0
:100570006B0020004B006500790062006F00610095
:100580007200640000002C034F00720074006800C9
:100590006F006C0069006E00650061007200200051
:1005A0004B006500790062006F006100720064001A
:1005B000730000000403090409026D00040100A097
:1005C000FA090400000103010100092111010001E1
:1005D0002240000705810308000A09040100010305
:1005E000010200092111010001224D0007058203CB
:1005F00008000A090402000103000000092111019A
:1006000000012236000705830308000A09040300DD
:100610000103000000092111010001223900070532
:1006200084031000011201100100000008EDFE60BB
:100630006004000102000105010906A10105071976
:10064000E029E715002501950875018102050819C3
:100650000129059505750191029501750391010523
:10066000071900297715002501957875018102C0C9
:1006700005010980A101850216810026B7001A81B3
:10068000002AB700751095018100C0050C0901A171
:10069000018503160100269C021A01002A9C02759E
:1006A0001095018100C005010902A1010901A10005
:1006B0000509190129051500250195057501810216
:1006C0009501750381010501093009311581257FE7
:1006D00095027508810609381581257F95017508F1
:1006E0008106050C0A38021581257F950175088160
:1006F00006C0C005010906A101050719E029E71593
:100700000025019508750181029501750881010593
:100710000819012905950575019102950175039147
:10072000010507190029FF150026FF009506750829
:100730008100C00011241FBECFEFDAE0DEBFCDBFC5
:1007400004B603FE24C08091AF049091B004A09140
:10075000B104B091B2048730904BA740B04BB9F4CC
:100760001092AF041092B0041092B1041092B2042F
:1007700014BE84B7877F84BF88E10FB6F894809356
:100780006000109260000FBEE0E0F8E3099513E00E
:10079000A0E0B1E0EEEDF3E602C005900D92AC34BE
:1007A000B107D9F714E0ACE4B3E001C01D92AF3A51
:1007B000B107E1F70E948D280C94ED310C940000F4
:1007C0006E9A769A0C940506CF93DF93EC0188819C
:1007D000813041F483E30E942E1683E3DF91CF91B1
:1007E0000C94011785EE0E942E1683E30E942E16AC
:1007F00083E30E94011785EE0E940117CE01DF916D
:10080000CF910C942A14CF93DF93EC01888181302F
:1008100041F488E30E942E1688E3DF91CF910C9477
:10082000011785EE0E942E1688E30E942E1688E39B
:100830000E94011785EE0E940117CE01DF91CF9132
:100840000C942A14CF93DF93EC018881813041F41A
:1008500084E30E942E1684E3DF91CF910C9401175C
:1008600085EE0E942E1684E30E942E1684E30E94D9
:10087000011785EE0E940117CE01DF91CF910C94F4
:100880002A1480915B03882309F4FEC080915903E8
:1008900090915A030E9473218D32914008F4F4C064
:1008A00010925B030E944C0A80914F039091500379
:1008B000049751F58091510390915203892B21F5B2
:1008C0008091530390915403892BF1F48091550347
:1008D00090915603892BC1F480915703909158034E
:1008E000892B91F480EE0E942E1681EE0E942E1626
:1008F0008CE00E942E168CE00E94011781EE0E946F
:10090000011780EE0E94011780914F0390915003D0
:100910008997F1F48091510390915203892BC1F48E
:100920008091530390915403892B91F48091550346
:1009300090915603892B61F480915703909158034D
:10094000892B31F48CE40E942E168CE40E9401174E
:1009500080914F0390915003459781F58091510309
:1009600090915203892B51F5809153039091540338
:10097000892B21F58091550390915603892BF1F431
:100980008091570390915803892BC1F480EE0E9407
:100990002E1682EE0E942E1681EE0E942E1681E106
:1009A0000E942E1681E10E94011781EE0E9401171C
:1009B00082EE0E94011780EE0E94011780914F0382
:1009C00090915003469751F58091510390915203B5
:1009D000892B21F58091530390915403892BF1F4D5
:1009E0008091550390915603892BC1F48091570350
:1009F00090915803892B91F480EE0E942E1682EE7E
:100A00000E942E168DE10E942E168DE10E94011784
:100A100082EE0E94011780EE0E94011780914F0321
:100A200090915003049781F5809151039091520366
:100A3000479751F58091530390915403892B21F5E9
:100A40008091550390915603892BF1F480915703BF
:100A500090915803892BC1F480EE0E942E1682EEED
:100A60000E942E1681EE0E942E1688E00E942E16FD
:100A700088E00E94011781EE0E94011782EE0E9419
:100A8000011780EE0C9401170895CF93DF93EC01CA
:100A90000E94C420BE0180E090E0DF91CF910C94D1
:100AA000E71D0F931F938D5390478830910508F0F1
:100AB00090C08A5A9F4FFB012281FC010C94B131F6
:100AC000222309F486C000E010E0980140E064E0D1
:100AD00070E088E292E00E94ED1182E090E00FC0A9
:100AE000222309F476C000E010E0980140E066E0BF
:100AF00070E088EB91E00E94ED1181E090E00E94AF
:100B0000450567C0222309F464C000E010E09801A5
:100B100040E068E070E088EE91E00E94ED1184E032
:100B200090E0EDCF83E001C084E0222319F00E9421
:100B30005E1E02C00E947F1E47E064E083E00E94C8
:100B4000350647C085EE222329F00E942E160E940A
:100B500093263FC00E9401173CC02223D1F10E947E
:100B6000870D00E010E0980140E066E070E088E862
:100B700091E00E94ED1184E00E947F1E83E00E94BC
:100B80007F1E87E00E947F1E86E00E945E1E0E94FC
:100B9000B120811102C00E948D200E94C92090E0E6
:100BA0009093A00480939F04806880939F040E9488
:100BB000CD200FC0222369F000E010E0980140E052
:100BC00066E070E088E591E00E94ED1186E00E9409
:100BD0007F1E81E01F910F9108950F931F932FEFB8
:100BE00089EF90E0215080409040E1F700C0000084
:100BF00000E010E0980140E065E070E088E492E0F9
:100C00000E94ED111F910F9108950C94ED050F9323
:100C10001F9300E010E0980140E063E070E080E0A6
:100C200091E00E94ED112FEF82E597E02150804086
:100C30009040E1F700C000001F910F910C94870DC8
:100C40000F931F9300E010E0980140E068E070E02F
:100C500088E191E00E94ED111F910F9108950C948D
:100C6000200681E008950C945105CF92DF92EF9217
:100C7000FF920F931F9301E010E020E030E0680145
:100C8000790104C0CC0CDD1CEE1CFF1C8A95D2F748
:100C9000D701C60104C0000F111F221F331F6A9520
:100CA000D2F7802B912BA22BB32B009153041091E0
:100CB00054042091550430915604082319232A2303
:100CC0003B23081719072A073B0749F4842F1F9174
:100CD0000F91FF90EF90DF90CF900C945E1E842FC9
:100CE0001F910F91FF90EF90DF90CF900C947F1E9B
:100CF0000E941F0D0E94CF140C94BA0A279A2F98B5
:100D00008FEF9FEF90938700809386008AE0809317
:100D1000800089E1809381000C943C260E947E062D
:100D20000C94E0032F9881110AC080918000877F86
:100D30008093800010928D0010928C000895833073
:100D400041F4809180008860809380008FEF9FEF56
:100D500012C09091800098609093800023E030E072
:100D6000281B3109220F331F8FEF9FEF02C096958A
:100D700087952A95E2F790938D0080938C000895D3
:100D800008950C94C0060C94C1060E94E9190E94B3
:100D9000870D0E9407062FEF84E39CE021508040DE
:100DA0009040E1F700C000000C94C1210F931F9305
:100DB000CF93DF938C01FC01C081D181CE010E94D1
:100DC000141FBE010E94BD09EC01B8010E94330648
:100DD000882309F419C1B801CE010E94BB0B8823F6
:100DE00009F412C1B801CE010E947C14882309F4D1
:100DF0000BC1B801CE010E944D0A882309F404C139
:100E0000C431F0E7DF0708F0CDC0C23080E7D80773
:100E100008F4A3C0F8018281882309F4AAC00E94C3
:100E2000B120811102C00E948D200E94C92090E053
:100E30009093A00480939F04C230F0E7DF0721F471
:100E400080919F04816082C0C33080E7D80721F47D
:100E500080919F0482607AC0C430E0E7DE0721F40D
:100E600080919F04846072C0C530F0E7DF0719F4F9
:100E700080919F0427C0C63080E7D80721F4809175
:100E80009F04806163C0C730E0E7DE0721F48091F2
:100E90009F0480625BC0C830F0E7DF0721F48091D7
:100EA0009F04806453C0C93080E7D80721F4809143
:100EB0009F0480684BC0CA30E0E7DE0729F48091C8
:100EC0009F048460886042C0CB30F0E7DF0721F4E4
:100ED00080919F048E7F3AC0CC3080E7D80721F400
:100EE00080919F048D7F32C0CD30E0E7DE0721F492
:100EF00080919F048B7F2AC0CE30F0E7DF0719F482
:100F000080919F0422C0CF3080E7D80721F48091E0
:100F10009F048F7E1BC0C031E0E7DE0721F4809183
:100F20009F048F7D13C0C131F0E7DF0721F480916A
:100F30009F048F7B0BC0C231D04721F480919F0466
:100F40008F7704C080919F048B7F877F80939F045D
:100F500080919F040E94CD2057C0C115E0E7DE07B5
:100F600079F0C130D047A1F081E080934C038093A9
:100F70004D03C801DF91CF911F910F910C94310661
:100F8000F8018281882309F43FC00E94C5063CC055
:100F9000F80182818823C1F180917004816080937F
:100FA000700432C0CB3380E7D807A1F4F801828106
:100FB000882321F010924C0382E016C080914C03EC
:100FC000811106C086E20E942E1686E20E94011759
:100FD00082E018C0CC33D04739F6F80182818823EB
:100FE00031F010924D0380E20E9450170DC08091A5
:100FF0004D03811106C087E20E942E1687E20E94EF
:10100000011780E20E94571780E0DF91CF911F9176
:101010000F9108952CE0729FF001112430E3839F1B
:10102000E00DF11D1124E60FF11DEE0FFF1FE45638
:10103000FE4F859194910E94CF09811540E5940758
:1010400008F047C0811520E4920708F01BC1883ED4
:10105000910520F5803E910508F08AC1883A9105F6
:1010600078F4853A910508F0A5C08130910509F41E
:101070007FC108F436C18430910508F079C131C1CF
:101080008D3B910508F4A1C0803C910508F429C16D
:10109000FC01EE0FFF1FE452FC4FEEC0811530E261
:1010A000930758F4811541E0940708F061C1803F2F
:1010B000910508F416C190650895811520E3920703
:1010C00008F0DDC09F70880F991F845A9A4FFC0169
:1010D000D3C0811535E5930708F043C0811544E579
:1010E000940708F0E6C0811522E5920708F58115FE
:1010F00031E5930708F0C9C0482F437021E030E084
:1011000002C0220F331F4A95E2F73C68AC0164E04D
:10111000569547956A95E1F74370342B8F70869505
:10112000869540E2849FC0011124822B932B089561
:10113000282F26952695AC01437055278115934598
:1011400008F0A8C030E2239FC001112421E030E064
:1011500002C0220F331F4A95E2F7822B932B9C6823
:1011600008958F3240E7940790F48F3120E792077B
:1011700008F0AAC0811536E5930708F49FC09C01CA
:1011800030562115304108F0ACC09F709BC08033B1
:1011900020E7920709F49FC008F49AC0813340E722
:1011A000940709F49BC08233904709F09AC080E00D
:1011B00093ED0895853A910509F496C0863A910514
:1011C00009F495C083E890E40895883A910509F4FC
:1011D00091C0893A910509F490C08A3A910509F4C1
:1011E0008FC08B3A910509F48EC08C3A910509F4B1
:1011F0008DC08B3B910509F48CC08C3B910509F4A3
:101200008BC08D3A910509F48AC0803B910509F4A1
:1012100089C08E3A910509F488C08F3A910509F486
:1012200087C0813B910509F486C0823B910509F492
:1012300085C0833B910509F484C0843B910509F482
:1012400083C0853B910509F482C0863B910509F472
:1012500081C0873B910509F480C0883B910509F462
:101260007FC0893B910509F47EC08A3B910509F056
:101270007DC08AE296E40895859194910895992716
:10128000906C08959F70906A0895982F8827816FB9
:10129000906A089530E2239FC001112421E030E0DC
:1012A00002C0220F331F4A95E2F7822B932B9A68D4
:1012B0000895982F8827846F906A08958F719927D1
:1012C000982F8827906208958F519047946D0895C4
:1012D00080E091ED089580E090ED089580E092ED3A
:1012E000089580E090E0089581E890E4089582E810
:1012F00090E4089582EE94E4089589EE94E40895CC
:101300008AEE94E4089585EB94E4089586EB94E4E2
:10131000089583EB94E4089584EB94E4089587EBB7
:1013200094E408958CEC94E408958DEC94E408958D
:1013300083E895E408958AE895E4089582E995E4C0
:10134000089584E995E4089581E296E4089583E29E
:1013500096E4089584E296E4089585E296E408957B
:1013600086E296E4089587E296E4089580E094E4A6
:10137000089580E090E0089508959CE0799FF00141
:10138000112490E3899FE00DF11D1124E60FF11D5A
:10139000EE0FFF1FE456FE4F859194910895823819
:1013A000910549F1B0F48133910509F459C048F42D
:1013B0008932910509F44FC08A32910509F455C06C
:1013C00008958533910509F441C08933910599F059
:1013D0000895833E910531F138F4803E910591F0F6
:1013E000823E9105A9F00895863E910501F1873E60
:1013F000910539F1089520919F0420FD3BC021FD06
:1014000039C0089580919F0480FF34C089E341C0B2
:1014100080919F0482FF32C080919F0484FF2CC082
:1014200080E037C080919F0482FD28C0F5CF809175
:101430009F0483FF25C080919F0484FDF1CF87EE38
:1014400028C080919F0483FD1BC0F5CF80919F042D
:1014500085FF18C019C080919F0485FF15C012C078
:1014600080919F0486FF12C013C080919F0486FF65
:101470000FC00CC080EE0DC083EE0BC082EE09C021
:1014800086EE07C085E305C089E203C081E301C0A1
:101490008AE290E0089508950895CF93DF93EC01D8
:1014A000FB018281811102C081E040C080915B0319
:1014B000811125C0C431D047B9F70E944B0A81E0A1
:1014C00080935B030E94672190935A038093590392
:1014D00010924E031092500310924F031092520339
:1014E000109251031092540310925303109256031A
:1014F00010925503109258031092570316C0809112
:10150000590390915A030E9473218C32914060F6E6
:1015100080914E03E82FF0E0EE0FFF1FE15BFC4FE0
:10152000D183C0838F5F80934E0380E0DF91CF91A2
:101530000895AAEDB2E021E030E08D91E82FF0E0CF
:1015400094E0F595E7959A95E1F741A18F70B9017F
:1015500002C0660F771F8A95E2F7CB01962F909510
:10156000492341A392A1982B92A372E0AE3DB70705
:1015700021F708950C94410485B7806885BF85B72D
:10158000806885BF0E94990AAEECB2E021E030E0AD
:101590008D91E82FF0E044E0F595E7954A95E1F765
:1015A00041A18F70B90102C0660F771F8A95E2F7DB
:1015B000CB01962F9095492341A392A1982B92A3FA
:1015C00072E0AA3DB70721F71092650310926403F9
:1015D00010925D0310925C031092670310926603F1
:1015E00010925F0310925E031092690310926803D9
:1015F000109261031092600310926B0310926A03C1
:1016000010926303109262030C948E06DF92EF92A5
:10161000FF920F931F93CF93DF930AED12E0CCE577
:10162000D3E0EE24E394F12CE5E0DE2EF801819185
:101630008F01E82FF0E064E0F595E7956A95E1F712
:1016400021A18F70A70102C0440F551F8A95E2F7B0
:10165000CA01242B21A392A18095982392A350EA3A
:101660005A95F1F7AEECB2E080E090E020E030E097
:101670006D91E62FF0E054E0F595E7955A95E1F786
:1016800040A150E06F7002C0559547956A95E2F70A
:1016900040FD08C0A701022E02C0440F551F0A9446
:1016A000E2F702C040E050E0842B952B2F5F3F4FC4
:1016B0002C303105E9F6288139812817390721F0C6
:1016C00099838883D09270020E94990A229682E0C0
:1016D0000E3D180709F0AACF80917002882361F1AE
:1016E000815080937002882339F0EFE9FFE0319751
:1016F000F1F700C0000020C080915C0390915D0371
:10170000909365038093640380915E0390915F03DF
:1017100090936703809366038091600390916103C7
:1017200090936903809368038091620390916303AF
:1017300090936B0380936A030E94780681E0DF91A7
:10174000CF911F910F91FF90EF90DF900895E82FB8
:10175000F0E0EE0FFF1FEC59FC4F8081918108955E
:1017600008951092B2030C94870D81E08093B20328
:101770000C942F060895AF92BF92CF92DF92EF9212
:10178000FF920F931F93CF93DF93CDB7DEB7A3974D
:101790000FB6F894DEBF0FBECDBF5C018B0185E1B3
:1017A000A81680E7B80639F4FB0182818823B1F1DD
:1017B0000E9481120BC0F6E1AF16F0E7BF0641F4BC
:1017C000FB018281882351F10E948A1280E026C1A8
:1017D000F7E1AF16F0E7BF0649F4FB0182818823E9
:1017E000B9F10E947D128111EFCFE2CFF8E1AF167F
:1017F000F0E7BF0639F4FB0182818823B9F10E942A
:10180000B50BE4CFF9E1AF16F0E7BF0639F4FB0101
:101810008281882359F10E94B10BD8CFFAE1AF162B
:10182000F0E7BF0649F4F80182818823F9F080913E
:10183000B2038111F0CFE3CFFBE1AF16F0E7BF06B3
:1018400039F4F8018281882389F00E9491120BC03B
:10185000FCE1AF16F0E7BF0649F4F8018281882366
:1018600029F00E949C120E942006B0CF8091B20302
:10187000882309F4D2C0F0EEAF16B10479F4F80170
:101880008281882309F452C00E94870D81E08093F1
:10189000B1031092B00310926F0398CFF2EEAF161F
:1018A000B10461F4F8018281882309F43FC00E94E9
:1018B000870D1092B1031092B00388CFF3EEAF16EC
:1018C000B10491F4F8018281882381F10E94870D8F
:1018D0001092B10381E08093B00310926E031092D6
:1018E0006D0310926C0372CFF2E5AF16B10459F498
:1018F000F8018281882309F491C08091710290914E
:1019000072020A970EC0F1E5AF16B10479F4F8013E
:101910008281882309F482C08091710290917202C1
:101920000A96909372028093710250CF20917502B3
:1019300083E2EFE8F2E0DE01119601900D928A95C4
:10194000E1F7F8018081E1E0F0E0EC0FFD1FE80F26
:10195000F11D8091730290917402E80FF91F60816C
:10196000772767FD7095620F711D882777FD809539
:10197000982F0E94BF2E20E030E040E451E40E9406
:10198000242E6B017C01F801818164E070E0681B0A
:101990007109882777FD8095982F0E94BF2E9B01A3
:1019A000AC01C701B6010E94BC2D9B01AC0160E0F7
:1019B00070E080E090E40E94323020E030E04CEDB6
:1019C00050E40E94CF2F6B017C01F80182818823B3
:1019D000D1F04FE050E0C701B6010E948D11809117
:1019E000B1038823A1F080916F0394E0899FF001F7
:1019F0001124E059FC4FC082D182E282F3828F5FD2
:101A000080936F0304C0C701B6010E94BA0D81E044
:101A1000EFEFAE16B10410F4D9CE81E0A3960FB665
:101A2000F894DEBF0FBECDBFDF91CF911F910F9114
:101A3000FF90EF90DF90CF90BF90AF90089580918E
:101A4000B003882309F448C080916C0390916D0322
:101A5000009779F40E94672190936D0380936C0343
:101A600080916E0390E0009771F480916F0390E095
:101A70000AC00E94732120917102309172022817CE
:101A8000390740F308950197FC01EE0FFF1FEE0F99
:101A9000FF1FE059FC4F60817181828193810E9418
:101AA000BA0DE0916E0384E0E89FF0011124E05943
:101AB000FC4F60817181828193814FE050E00E94F0
:101AC0008D1180916E0390E0019660916F0370E03C
:101AD0000E949D3180936E0308950E94B120811170
:101AE00002C00E948D200E94DB20809397043E9AC2
:101AF000809171008D7F8093710082E080939000CF
:101B00008AE18093910081E08093B50308958091EC
:101B1000B503811102C00E946D0D10920504109250
:101B20000404809171008D7F8093710080919000FA
:101B30008F73809390001092C7031092C603109287
:101B4000FE031092FF031092000410920104109201
:101B5000FD031092FC03ECEDF3E0ACECB3E011926A
:101B60001192119211921D921D9283E0EC3FF807A1
:101B7000B1F708958F929F92AF92BF92CF92DF926A
:101B8000EF92FF920F931F93CF93DF936B017C0132
:101B90008091C603882309F497C08091B503811111
:101BA00002C00E946D0D0CEF13E0C7E0D0E0A7016A
:101BB0009601D8019E918E917E916E918D010E9429
:101BC000202E811145C0FE01EE0FFF1FEE0FFF1FFB
:101BD000E452FC4F10821182128213829E01220F66
:101BE000331F24533C4FD9011D921C9240E050E01A
:101BF00060E070E06C5F7F4F4E5F5F4FC730D10594
:101C000051F121967F01E60EF71ED7018D909D9030
:101C1000AD90BC90870104501109D8018D929D921E
:101C2000AD92BC921397D7011D921D921D921C92EA
:101C300013977901E40EF51ED7010D911C91C70190
:101C40000297DC010D931C93D7011D921C92D2CFF9
:101C5000219708F0ACCF809104049091050401977E
:101C600097FD05C0909305048093040404C010926E
:101C700005041092040480910404909105042091BD
:101C80000204309103042817390724F0109203044A
:101C900010920204892BC1F4809171008D7F809392
:101CA0007100809190008F73809390001092FE03DA
:101CB0001092FF0310920004109201041092FD0391
:101CC0001092FC031092C603DF91CF911F910F91E8
:101CD000FF90EF90DF90CF90BF90AF909F908F904C
:101CE00008951F920F920FB60F9211244F925F9298
:101CF0006F927F928F929F92AF92BF92CF92DF921C
:101D0000EF92FF922F933F934F935F936F937F9345
:101D10008F939F93AF93BF93CF93DF93EF93FF93F3
:101D20008091C603882309F49AC1C0910404D0911C
:101D300005041C161D060CF092C14090B60350908D
:101D4000B7036090B8037090B90320E030E0A901B8
:101D5000C301B2010E94CB2F18160CF065C0C13030
:101D6000D10509F452C08091020490910304BE0190
:101D70000E949D315C019093030480930204C09003
:101D8000C803D090C903E090CA03F090CB0320E0D1
:101D900030E040E85FE3C701B6010E94BC2D6093CC
:101DA000C8037093C9038093CA039093CB03F501D2
:101DB000EE0FFF1FEE0FFF1FE452FC4FA301920135
:101DC00060817181828193810E94242E20E030E025
:101DD00040E05EE30E94CF2F9B01AC01C701B6013A
:101DE0000E94CB2F18168CF4C5010196BE010E94EB
:101DF0009D3190930304809302041092C8031092C3
:101E0000C9031092CA031092CB03E0910204F0912F
:101E10000304EE0FFF1FEE0FFF1FE452FC4F608123
:101E2000718182819381CFC0C090FE03D090FF0367
:101E3000E0900004F090010420E030E0A901C70127
:101E4000B6010E94202E2197882309F4A2C0FE012A
:101E5000EE0FFF1FEE0FFF1FE452FC4F80809180BA
:101E6000A280B380A5019401C701B6010E94202E73
:101E700087FF31C0A501940160E070E08CED93EC28
:101E80000E94242E20E030E040E451E40E94242E01
:101E900020E030E040E05FE30E94CF2F9B01AC01E7
:101EA00060E070E080E090E40E9432309B01AC0181
:101EB000C501B4010E94CF2F9B01AC01C701B6013F
:101EC0000E94202E87FF07C0A701960160E070E006
:101ED0008CED93E439C0A5019401C701B6010E94BD
:101EE000CB2F18160CF055C0A501940160E070E0EE
:101EF0008CED93E40E94242E20E030E040E451E495
:101F00000E94242E20E030E040E05FE30E94CF2FCB
:101F10009B01AC0160E070E080E090E40E94323010
:101F20009B01AC01C501B4010E94CF2F9B01AC0104
:101F3000C701B6010E94CB2F18165CF5A7019601C8
:101F400060E070E08CED93EC0E94242E20E030E005
:101F500040E451E40E94242E20E030E040E05FE3C2
:101F60000E94CF2F9B01AC0160E070E080E090E424
:101F70000E9432309B01AC01C701B6010E94CF2FF5
:101F80006093FE037093FF03809300049093010419
:101F900012C0CC0FDD1FCC0FDD1FC452DC4F888177
:101FA0009981AA81BB818093FE039093FF03A09344
:101FB0000004B09301046091FE037091FF038091CF
:101FC0000004909101042091B3033091B4032F3F9A
:101FD0004FEF340731F02F5F3F4F3093B40320931E
:101FE000B3030E94A7126B017C0120E034E244EFAE
:101FF00051E40E94202E87FF08C026EFC22E28E25F
:10200000D22E24EFE22E21E4F22E20E030E040E058
:1020100051E4C701B6010E94CF2F9B01AC0160E0E3
:1020200074E284E79BE40E94242E6B017C010E94F1
:10203000912E7093970060939600209176023091D4
:1020400077024091780250917902C701B6010E944F
:10205000CF2F0E94912E70939900609398008091E9
:10206000C703882309F432C1C090C203D090C303D0
:10207000E090C403F090C50320E030E0A901C7015F
:10208000B6010E94CB2F1816D4F58091B30390911E
:10209000B4038F3F2FEF920729F001969093B4037A
:1020A0008093B303C701B6010E94A71220E030E07D
:1020B00040E051E40E94CF2F9B01AC0160E074E24C
:1020C00084E79BE40E94242E6B017C010E94912EE8
:1020D000709397006093960020917602309177027A
:1020E0004091780250917902C701B6010E94CF2F2A
:1020F0000E94912E709399006093980008C01092EE
:10210000970010929600109299001092980060919A
:10211000BC037091BD036F5F7F4F7093BD036093ED
:10212000BC03209196003091970080E090E0232B33
:10213000F1F0C0919600D09197000E94BD2E6B01E6
:102140007C01BE0180E090E00E94BD2E9B01AC01AD
:102150006091BE037091BF038091C0039091C10351
:102160000E94242E20E03FEF4FE757E410C00E946A
:10217000BD2E6B017C0120E030EE4FEF54E4609106
:10218000BE037091BF038091C0039091C1030E9470
:10219000CF2F9B01AC01C701B6010E94CB2F87FD59
:1021A00095C02091BA032F5F2093BA0330E080914D
:1021B00093049091940428173907A0F080919E040D
:1021C000882319F01092BA030DC0809171008D7FA1
:1021D00080937100809190008F7380939000109293
:1021E000C7037CC08091BB03C091BA03811128C092
:1021F000C0909804D0909904E0909A04F0909B04C9
:1022000020E030E0A901C701B6010E94CB2F1816CB
:10221000BCF481E08093BB031092C2031092C3030D
:102220001092C4031092C503C092BE03D092BF03A4
:10223000E092C003F092C103C150C093BA0342C000
:102240001092BB031092B4031092B303E091950473
:10225000F091960448E0C49FE00DF11D11248081A7
:102260009181A281B3818093C2039093C303A09311
:10227000C403B093C50320E030E040E85EE364812E
:102280007581868197810E94CF2F6B017C016091BF
:102290007A0270E080E090E00E94BD2E20E030E005
:1022A00048EC52E40E94242E9B01AC01C701B60108
:1022B0000E94CF2F6093BE037093BF038093C0032F
:1022C0009093C1031092BD031092BC0380919704B8
:1022D00080FD04C01092C7031092C603FF91EF91D6
:1022E000DF91CF91BF91AF919F918F917F916F912E
:1022F0005F914F913F912F91FF90EF90DF90CF90A2
:10230000BF90AF909F908F907F906F905F904F9015
:102310000F900FBE0F901F901895CF92DF92EF9203
:10232000FF92CF93DF936B017C01EA018091B503AB
:10233000811102C00E946D0D8091970480FF46C0FC
:10234000809104049091050408970CF03FC080919F
:1023500071008D7F809371008091C70381110E946D
:10236000870D81E08093C6031092B4031092B303EB
:1023700020E030E0A901C701B6010E94CB2F18165A
:10238000DCF48091040490910504FC01EE0FFF1F22
:10239000EE0FFF1FE452FC4FC082D182E282F38233
:1023A000FC01EE0FFF1FE453FC4FD183C083019665
:1023B000909305048093040480917100826080935F
:1023C000710080919000806880939000DF91CF91A0
:1023D000FF90EF90DF90CF9008959F92AF92BF92C1
:1023E000CF92DF92EF92FF920F931F93CF93DF93E1
:1023F000EC015B01942E680179018091B503811194
:1024000002C00E946D0D8091970480FF6AC0809188
:1024100071008D7F809371008091C60381110E94AD
:10242000870D81E08093C703D0939604C0939504F1
:10243000B0929404A092930490929E04C092980447
:10244000D0929904E0929A04F0929B041092C803EF
:102450001092C9031092CA031092CB031092BA03D0
:1024600088819981AA81BB818093C2039093C30321
:10247000A093C403B093C50320E030E040E85EE3DE
:102480006C817D818E819F810E94CF2F6B017C01A9
:1024900060917A0270E080E090E00E94BD2E20E022
:1024A00030E048EC52E40E94242E9B01AC01C701AD
:1024B000B6010E94CF2F6093BE037093BF03809339
:1024C000C0039093C1031092BD031092BC0380918E
:1024D0007100826080937100809190008068809389
:1024E0009000DF91CF911F910F91FF90EF90DF90BF
:1024F000CF90BF90AF909F90089580919704817086
:102500000895809197048160809397040E94DF2052
:102510000C94BA0B809197048E7F809397040C944F
:10252000DF208091060490E0019666E070E00E9452
:102530009D318093060408958091060490E00197F0
:1025400066E070E00E949D318093060408958F92AA
:102550009F92AF92BF92CF92DF92EF92FF92CF9372
:10256000DF936B017C01C091B303D091B403BE0132
:1025700080E090E00E94BD2E4B015C01A701960116
:1025800060E070E08CE594E40E94242E9B01AC0195
:10259000C501B4010E94CF2F0E94912E9B01409152
:1025A0000604433009F473C028F4442351F0413049
:1025B000E9F02DC1443009F4A0C0453009F4E0C071
:1025C00026C180E090E0A0E0BFE380937602909384
:1025D0007702A0937802B09379021092B60310921A
:1025E000B7031092B8031092B90311C11092B60349
:1025F0001092B7031092B8031092B90364317105B9
:1026000040F46A30710560F520E030E040E85EE3B8
:102610002BC0693C710508F0AAC080E090E00E94E0
:10262000BD2E20E030E040EA51E40E94BB2D20E0C6
:1026300030E044E353E40E94242E9B01AC010E944D
:10264000CF2F20E030E040E05EE30E94CF2F9B01DF
:10265000AC0160E070E080E09EE30E94BB2D44C0CE
:1026600020E030E040E05FE3C701B6010E94CF2FD9
:102670006B017C0180E090E0A0E0BEE380937602F5
:1026800090937702A0937802B0937902C0C0109221
:10269000B6031092B7031092B8031092B9034AE040
:1026A000469F9001479F300D1124C90168EB7BE0E4
:1026B0000E948931BC016C5D754077FF03C0719544
:1026C00061957109882777FD8095982F0E94BF2E0C
:1026D0002EE333EC4EE259E30E94CF2F20E030E0AE
:1026E00040EC5EE30E94BC2D60937602709377020B
:1026F00080937802909379028AC01092B603109268
:10270000B7031092B8031092B903CE0183709927D2
:10271000892BE1F0BE016170772780E090E00E9494
:10272000BD2E20E030E040E05EE30E94CF2F20E0AD
:1027300030E040E45FE30E94BC2D6093760270932A
:10274000770280937802909379020CC080E090E049
:10275000A0E0BFE38093760290937702A093780283
:10276000B0937902C770DD27CD2B09F050C01092CD
:10277000760210927702109278021092790247C086
:102780001092B6031092B7031092B8031092B903D7
:10279000812C912CA12C9FE3B92E809276029092ED
:1027A0007702A0927802B09279022739310578F148
:1027B00080E090E00E94BD2E20E030E047E153E44D
:1027C0000E94BB2D20E030E04AE754E40E94242E12
:1027D00020E030E048E452E40E94CF2F20E030E0D7
:1027E00040EA51E40E94012F0E948C2EFB01EE0F63
:1027F000FF1FEE0FFF1FE252FD4F2081318142810A
:102800005381C701B6010E94CF2F6B017C01C70124
:10281000B601DF91CF91FF90EF90DF90CF90BF9006
:10282000AF909F908F900895915727E0289FD001F7
:10283000299FB00D1124AE54BD4F1196ED91FC911E
:1028400012978C91813029F4309719F087E094E049
:1028500009940895CF93DF93EC0189819A81915770
:1028600027E0289FD001299FB00D1124AE54BD4F01
:102870001596ED91FC9116978C91813021F430974B
:1028800011F0CE0109951A8219821882DF91CF9139
:102890000895CF93915727E0289FF001299FF00DCD
:1028A0001124EE54FD4F2181C381948180818823BE
:1028B00019F08130B9F01EC0809107048823D1F04F
:1028C000813009F4C22F8C2F0E942E168C2F0E946B
:1028D000011780910704823068F087E094E0CF917F
:1028E0000C942A14EC2FF92F309721F087E094E014
:1028F000CF910994CF910895EF92FF920F931F9378
:10290000CF93DF931F92CDB7DEB77C018B019C0183
:10291000315780910804909109042F3F310509F047
:1029200030F50E94141480910804909109040097D6
:1029300039F08E159F0521F00E94491421E001C055
:1029400020E0F8018281882309F1F0920904E092E5
:10295000080429830E94672190930B0480930A0442
:10296000809107048F5F8093070429810FC000972F
:1029700061F00E94141480910804909109040E944F
:10298000491487E094E00E942A1421E0822F0F90DE
:10299000DF91CF911F910F91FF90EF90089580915B
:1029A000080490910904892B99F080910A04909170
:1029B0000B040E9473218739910550F0809108041F
:1029C000909109040E94491487E094E00C942A1421
:1029D000089590931104809310040895E0911004D9
:1029E000F0911104309721F00190F081E02D0994CD
:1029F00080E00895E0911004F0911104309721F0E7
:102A00000280F381E02D09940895E0911004F09183
:102A10001104309721F00480F581E02D0994089588
:102A200020910E0430910F048217930771F0909358
:102A30000F0480930E04E0911004F091110430977C
:102A400021F00680F781E02D0994089520910C046F
:102A500030910D048217930771F090930D048093C9
:102A60000C04E0911004F0911104309721F00084DF
:102A7000F185E02D0994089508950C943C150E9469
:102A80005E210E94BC0A0E94E4210C943C265F92C5
:102A90006F927F928F929F92AF92BF92CF92DF926E
:102AA000EF92FF920F931F93CF93DF93CDB7DEB7D3
:102AB0002A970FB6F894DEBF0FBECDBF0E94060B5B
:102AC00093E1C92E94E0D92E00E010E0AA24A3944B
:102AD000B12C502E802F0E94A70B3C01F601E190F3
:102AE000F1906F01E826F926E114F104B1F40F5FCB
:102AF0001F4F0430110569F78FEF89838A831B828A
:102B00000E9467218160782F9D838C8349815A813F
:102B10006B818D810E9400163AC08091700481FD06
:102B20000E94B00B20E030E04501022E02C0880C6C
:102B3000991C0A94E2F7C4018E219F21892B09F187
:102B40002E835F826820792081E0672809F480E085
:102B500088870E9467218160782F9A8789874E81B4
:102B60005F8168858A850E940016F801EE0FFF1FBD
:102B7000ED5EFB4F8081918188259925918380832B
:102B800006C02F5F3F4F2C30310571F6B0CF0E9449
:102B90007B23109112040E94EE141817D9F00E94A2
:102BA000EE14809312042A960FB6F894DEBF0FBE7F
:102BB000CDBFDF91CF911F910F91FF90EF90DF90EC
:102BC000CF90BF90AF909F908F907F906F905F90CD
:102BD0000C94C3062A960FB6F894DEBF0FBECDBF85
:102BE000DF91CF911F910F91FF90EF90DF90CF90E9
:102BF000BF90AF909F908F907F906F905F9008955F
:102C0000CF93DF93CDB7DEB72B970FB6F894DEBF27
:102C10000FBECDBF4F83588769877A878B87DE01C8
:102C2000119686E0FD0111928A95E9F785E0FE0193
:102C3000379601900D928A95E1F749815A816B810F
:102C40007C818D819E810E94B91C2B960FB6F894D1
:102C5000DEBF0FBECDBFDF91CF910895CF93C82FB8
:102C6000882309F4CCC0823859F40E94EE1481FD07
:102C7000C6C089E30E94941F0E945E2089E30CC0B5
:102C8000833879F40E94EE1480FDB9C083E50E9478
:102C9000941F0E945E2083E50E94D41FCF910C9464
:102CA0005E20843859F40E94EE1482FDA8C087E4A7
:102CB0000E94941F0E945E2087E4EECF8CEF8C0F61
:102CC000813A48F48C2F0E94A825811198C08C2F3E
:102CD0000E94941FE3CF80E28C0F883048F4C770C5
:102CE00081E001C0880FCA95EAF70E941520D6CF6F
:102CF0008BE58C0F833078F4C53A29F0C63A31F46D
:102D000082E890E005C081E890E002C083E890E0AE
:102D1000CF910C94101588E58C0F853108F06FC0A9
:102D2000C83A61F1C93A69F1CA3A71F1CB3A79F11D
:102D3000CC3A81F1CB3B89F1CC3B91F1CD3A99F181
:102D4000C03BA1F1CE3AA9F1CF3AB1F1C13BB9F103
:102D5000C23BC1F1C33BC9F1C43BD1F1C53BD9F181
:102D6000C63BE1F1C73BE9F1C83BF1F1C93BF9F1E1
:102D7000CA3B09F03FC08AE292E03EC082EE90E09A
:102D80003BC089EE90E038C08AEE90E035C085EB1C
:102D900090E032C086EB90E02FC083EB90E02CC037
:102DA00084EB90E029C087EB90E026C08CEC90E0AB
:102DB00023C08DEC90E020C083E891E01DC08AE83C
:102DC00091E01AC082E991E017C084E991E014C053
:102DD00081E292E011C083E292E00EC084E292E0D0
:102DE0000BC085E292E008C086E292E005C087E26F
:102DF00092E002C080E090E0CF910C942615CF9134
:102E00000895882309F44BC0823859F40E94EE14C7
:102E100081FF45C089E30E94941F0E945E2089E3E0
:102E20000CC0833871F40E94EE1480FF38C083E533
:102E30000E94941F0E945E2083E50E94D41F0C9480
:102E40005E20843859F40E94EE1482FF28C087E483
:102E50000E94941F0E945E2087E4EFCF9CEF980FA2
:102E6000913A58F390E2980F983050F4877091E0BF
:102E700001C0990F8A95EAF7892F0E941B20DFCFA6
:102E80009BE5980F933020F480E090E00C941015AF
:102E9000885A853120F480E090E00C94261508953E
:102EA000882321F00E9415200C945E200895882329
:102EB00021F00E941B200C945E2008958F929F9217
:102EC000AF92BF92CF92DF92EF92FF920F931F9338
:102ED000CF93DF931F92CDB7DEB74C01A62E472FBD
:102EE000FC01E580E2948FE0E822F280FF2021F0EF
:102EF00079830E943220498149830E948D1F498134
:102F0000882381F0FF2071F080E28A0D883050F034
:102F100082E00E94761F0E948D1FBB24B394B826C6
:102F2000498101C0B12CE42FE295EF70F0E0E25A44
:102F3000FF4F0C94B131842F807F142F1F70882392
:102F400011F01295107FFF2089F0112309F496C12A
:102F500080E28A0D883020F4812F0E94152003C062
:102F6000812F0E9425200E945E2088C18A2D0E9408
:102F70000117112309F4BFC180E28A0D883020F4C3
:102F8000812F0E941B2003C0812F0E942B200E94B2
:102F90005E20B1C1242F207F842F8F70203211F04A
:102FA0008295807FAA2021F0F1E0AF16B1F021C018
:102FB000FF2041F0EE2039F191E0E91224C00E9497
:102FC000452099C1EE2021F0E1E0EE1609F493C10D
:102FD00089830E94482089810BC1FF2029F0F5E0F8
:102FE000FE1508F488C10FC094E09E1508F483C153
:102FF000FFC0FF2059F0EE2031F0F401958190FFE1
:103000003DC19F7095830E94501775C1EE2009F451
:10301000EFC03AC1242F26952695237030E0211564
:10302000310521F02130310561F065C1FF2021F02B
:103030008A2D942F937002C080E090E00E941015BA
:103040005AC1FF2021F08A2D942F937002C080E096
:1030500090E00E9426154FC18A2DFF2019F00E9492
:10306000832202C00E94EB220E94702344C1842F5D
:10307000837009F04EC0F1103EC12A2D229526958D
:103080002770220F220F8A2D8F70C82ED12CE12C91
:10309000F12C022E04C0CC0CDD1CEE1CFF1C0A948B
:1030A000D2F7A4FE10C06FE070E080E090E004C0B2
:1030B000660F771F881F991F2A95D2F76095709524
:1030C0008095909503C060E070E0CB01242F269599
:1030D0002695237030E02230310569F02330310528
:1030E00089F06C297D298E299F292130310571F0C5
:1030F0000E940B1E00C16C297D298E299F290E94E8
:10310000251EF9C00E940B1EC701B6010E94F11DC9
:10311000F2C0FF2019F0842F817001C086958823AA
:1031200009F4E9C02A2D229526952770220F220F37
:103130008A2D8F70C82ED12CE12CF12C022E04C0C8
:10314000CC0CDD1CEE1CFF1C0A94D2F7A4FE10C0B0
:103150006FE070E080E090E004C0660F771F881F8A
:10316000991F2A95D2F7609570958095909503C028
:1031700060E070E0CB01242F26952695237030E087
:103180002230310569F02330310589F06C297D2921
:103190008E299F292130310571F00E94DF1EABC0BE
:1031A0006C297D298E299F290E94F91EA4C00E94A6
:1031B000DF1EC701B6010E94C51E9DC00A2D10E08A
:1031C000F801E05EF109E531F10508F053C0E2597C
:1031D000FF4F0C94B1311A2D1F70842F8F71FF2077
:1031E00021F00E945E1E812F0ECF0E947F1E812F34
:1031F0000E94571780C0FF2049F0F4E0FE1508F444
:103200007AC0842F8F710E94A41E75C085E08E1530
:1032100008F471C0F6CFFF2039F0842F8F710E941F
:103220005E1E69C0FF20C9F3842F8F710E947F1E2C
:1032300062C0FF2029F0842F8F710E94491E5BC05D
:103240000E943F1E58C0FF2051F0142F1F71812F84
:103250000E945E1E63E0812F0E946D1F4CC081E0C2
:103260000E94761F91E09E1508F045C082E00E9402
:10327000761F41C0FF2031F0EE2079F28A2D0E94A6
:103280002E1639C0EE2081F28A2D0E94011733C01C
:103290004F706A2DC4010E94B9090E94661D2BC09F
:1032A000F11029C0942F9F70492F50E042305105F2
:1032B000B9F04CF44115510581F041305105D9F474
:1032C0000E94642618C04330510569F0443051050E
:1032D00091F48A2D0E94B8260EC00E944D260BC084
:1032E0000E94802608C00E94932605C04F706A2D58
:1032F000C4010E94BC09BB20F1F00E94691F80FD3F
:103300001AC0F40112820E94631F0E945E1EC40153
:103310000E94A9190E94631F0F90DF91CF911F9106
:103320000F91FF90EF90DF90CF90BF90AF909F9064
:103330008F900C947F1E0F90DF91CF911F910F9172
:10334000FF90EF90DF90CF90BF90AF909F908F90C5
:1033500008950F931F93CF93DF93EC012881398158
:103360008B819C81892B31F03F3F11F080E003C0BD
:103370002F3FE1F781E0811113C0CE010E94D606F4
:10338000882371F0688179818A810E945F1F8C0196
:103390000E94131F0E94E61DB801CE010E945E1715
:1033A000DF91CF911F910F9108950E9432200E94CA
:1033B00042200E9407200E945E200E941C240E943E
:1033C000702380E090E00E94101580E090E00C9463
:1033D00026150E9422200C94D5190E94541F292FD3
:1033E00022952F7030E02C3031054CF42A30310515
:1033F0006CF42250310922303105B0F407C02C3072
:10340000310571F02F30310559F00EC0803F31F099
:1034100018F4803E48F402C0843F31F481E00895FE
:1034200093FB882780F9089580E00895CF93DF9378
:1034300000D000D01F92CDB7DEB70F900F900F9045
:103440000F900F90DF91CF910895CF93DF9300D02D
:1034500000D000D0CDB7DEB726960FB6F894DEBF09
:103460000FBECDBFDF91CF9108951F93CF93DF9310
:10347000C0911B0416E080911C04C81799F0D0E09D
:103480001C9FF0011D9FF00D1124E35EFB4F408156
:10349000518162817381848195810E94251A2196D0
:1034A000C770E9CFDF91CF911F91089540914D04EE
:1034B00050914E0460914F047091500480915104DA
:1034C000909152040C94251ACF93809152048295C6
:1034D0008F7009F05FC080914F04882309F45AC0AF
:1034E00020911B04A0911C0460914D0470914E0426
:1034F000809150049091510431E06F3F09F030E029
:10350000B32FC6E02A1709F445C0009721F07F3F8A
:1035100021F44B2F03C041E001C040E030E040FD0A
:1035200035C0C29FF001C39FF00D1124E35EFB4F35
:10353000418174132BC04081641328C04281411122
:1035400025C0438154814817590710F4415051094F
:10355000481B590B46395105C8F4809152048F70AD
:1035600080618093520486E0829FF001839FF00D7A
:103570001124EE5DFB4F80818F70806180838DE42C
:1035800094E00E94A919CF910C94351A2F5F3F4FF8
:103590002770B8CFCF910895CF92DF92EF92FF922C
:1035A0000F931F93CF93DF93CDB7DEB762970FB61C
:1035B000F894DEBF0FBECDBF8C0185E0F801DE01BF
:1035C0001D9601900D928A95E1F7D8014C911196C4
:1035D0005C91119712966C9112971396ED90FC9056
:1035E000149770914D04E0914E0420915004309155
:1035F00051042115310531F0EF3F31F481E07F3F77
:1036000019F403C081E001C080E0B82FB170CB2E67
:1036100080FD6CC1D0904F04DD2009F4F5C0F0911D
:103620005204E216F30638F0C701821B930B863969
:10363000910548F09BC0209530952E0D3F1D2639F1
:10364000310508F093C08F2F807F09F052C0E51339
:1036500014C0741312C0D62E61110FC0FF70F06138
:10366000F09352040E94561A8DE494E00E94A91926
:1036700080915204F80185836CC1EF2831F05F3FDF
:1036800031F481E04F3F19F403C081E001C080E0D4
:1036900080FD03C081E0862701C080E0F82FF17033
:1036A000FF2E80FF1CC080911B0420911C0436E07B
:1036B000821709F428C190E0389FF001399FF00D7E
:1036C0001124E35EFB4F7181571306C070814713CD
:1036D00003C07281671303C001968770E9CFD62EAD
:1036E000662309F436C180915204816080935204AC
:1036F00053C0E51308C0741306C0611104C0D8019B
:103700001596FC93AEC04D875E878D859E856A8B2E
:103710000E94ED196A89882329F1D62E662311F1BA
:1037200020915204822F82958F7090E002970CF4C2
:1037300060C080914D0490914E0498878F831986C4
:10374000FB86EA862C87CE01079651C0E51731F13A
:103750004D875E878D859E856A8B0E94ED196A89EB
:1037600081112EC0C8010E94A919A4C08F2F807F8B
:1037700069F77E2DF98AE88A89890E94161A8DE4F4
:1037800094E00E94A919EDE4F4E086E0DF011D92C7
:103790008A95E9F70E94561AD12CDBC07413D8CF52
:1037A0006111D6CFD8011596FC93C8010E94A919C2
:1037B000EDE4F4E086E0DF011D928A95E9F7C9C0E7
:1037C000D62E662379F220915204822F82958F7033
:1037D00090E0029774F080914D0490914E049A838A
:1037E00089831B82FD82EC822E83CE0101960E948A
:1037F000A91986E0F801ADE4B4E001900D928A9534
:10380000E1F70E94641A6FC0E216F30628F0C701C0
:10381000821B930B9C0104C0209530952E0D3F1DFB
:103820002639310508F052C0D62E662309F49ACF06
:10383000E5132CC074132AC08091520480FD1DC072
:10384000982F92959F70C9F0D80115968C93159773
:103850009F3039F09F5F9295907F8F70892B1596DE
:103860008C93C8010E94A91986E0F801ADE4B4E088
:1038700001900D928A95E1F736C086E0F801ADE43B
:10388000B4E001900D928A95E1F763C04D875E87A1
:103890008D859E850E94ED19882379F086E0F801D8
:1038A000ADE4B4E001900D928A95E1F70E94641AAC
:1038B0000E94561ADD24D3944CC08091520481603A
:1038C00080935204C8010E94A91943C07E2DF98A31
:1038D000E88A89890E94161AEDE4F4E086E0DF01A7
:1038E0001D928A95E9F70E94561A33C0662309F49F
:1038F00039CF4D875E878D859E850E94ED1988237F
:1039000009F430CFCBCF4D875E878D859E850E9491
:10391000541F292F22952F7030E0223031052CF4CE
:103920009F7041F0811106C00CC0243031052CF489
:103930009F7049F4805E883020F0C8010E94A91968
:10394000CF2CDC2C06C0D80115969C91907F91F766
:10395000F8CF8D2D62960FB6F894DEBF0FBECDBFA7
:10396000DF91CF911F910F91FF90EF90DF90CF905B
:1039700008951F93CF93DF93CDB7DEB72C970FB683
:10398000F894DEBF0FBECDBF4F83588769877A8713
:103990008B879C87CE0107960E94CC1A8823C1F0A2
:1039A0002F8138858A859B85892B31F03F3F11F027
:1039B00080E003C02F3FE1F781E0811147C04F81D4
:1039C000588569857A858B859C850E94251A3EC01D
:1039D00086E0FE013796DE01119601900D928A95E0
:1039E000E1F7FF81E8854A855B854115510531F096
:1039F000EF3F31F481E0FF3F19F403C081E001C0E3
:103A000080E080FD23C020911C0430E0C9010196B4
:103A10008770992760911B0470E086179707F1F172
:103A2000F983EA835D834C8396E0929FD001939F54
:103A3000B00D1124A35EBB4FFE01319601900D9293
:103A40009A95E1F780931C040E94351A16E0809144
:103A50001B0490911C04891779F1189FC00111244F
:103A6000835E9B4F0E94CC1A882331F1E0911B04A6
:103A70001E9FF0011124E35EFB4F40815181628162
:103A80007381848195810E94251A80911B0490E0A6
:103A900001968770992780931B04D9CF0E94E9195A
:103AA00010921C0410921B04EDE4F4E086E0DF01A8
:103AB0001D928A95E9F7CACF2C960FB6F894DEBF0F
:103AC0000FBECDBFDF91CF911F910895EF92FF926E
:103AD0000F931F93CF93DF93FC01009709F46FC0FE
:103AE000F12CEE24E394EF0121968491843740F485
:103AF000843008F055C0813081F0823021F15FC000
:103B0000853709F447C0C0F19CE7980F903708F05B
:103B100056C08F770E94011745C08F010E5F1F4F5F
:103B2000FE01849190E2980F983050F48770FE2D3A
:103B300001C0FF0F8A95EAF78F2F0E94352015C02C
:103B40000E942E1614C08F010E5F1F4FFE0184913C
:103B500090E2980F983068F48770FE2D01C0FF0F37
:103B60008A95EAF78F2F0E943B200E945E20E80191
:103B700019C00E940117FBCFCF010296FE01C4912C
:103B8000CC2361F0EFE9FFE03197F1F700C00000CE
:103B9000C150F6CFCF010296FE01F490EC0102C0B5
:103BA0000E942E168F2D882341F0EFE9FFE0319718
:103BB000F1F700C000008150F6CFFE0194CFDF91F5
:103BC000CF911F910F91FF90EF900895089560930A
:103BD0005704709358048093590490935A040C949A
:103BE000D5190F931F9300915704109158042091F9
:103BF000590430915A04062B172B282B392B00938C
:103C00005704109358042093590430935A041F9179
:103C10000F910C94D5190F931F9300915704109195
:103C200058042091590430915A040623172328235D
:103C30003923009357041093580420935904309368
:103C40005A041F910F910C94D5190F931F93009153
:103C50005704109158042091590430915A040627B2
:103C600017272827392700935704109358042093C7
:103C7000590430935A041F910F910C94D519109246
:103C800053041092540410925504109256040C944C
:103C9000D51941E050E060E070E004C0440F551FCA
:103CA000661F771F8A95D2F74093530450935404AC
:103CB00060935504709356040C94D51941E050E07C
:103CC00060E070E004C0440F551F661F771F8A959F
:103CD000D2F78091530490915404A0915504B0916F
:103CE0005604842B952BA62BB72B809353049093CB
:103CF0005404A0935504B09356040C94D51941E094
:103D000050E060E070E004C0440F551F661F771F4D
:103D10008A95D2F74095509560957095809153049F
:103D200090915404A0915504B09156048423952396
:103D3000A623B7238093530490935404A09355046F
:103D4000B09356040C94D51941E050E060E070E067
:103D500004C0440F551F661F771F8A95D2F78091C4
:103D6000530490915404A0915504B09156048427B3
:103D70009527A627B7278093530490935404A093C4
:103D80005504B09356040C94D5190F931F930091CA
:103D90005304109154042091550430915604062B7D
:103DA000172B282B392B0093530410935404209382
:103DB0005504309356041F910F910C94D5190F930D
:103DC0001F93009153041091540420915504309195
:103DD00056040623172328233923009353041093F2
:103DE000540420935504309356041F910F910C9462
:103DF000D5190F931F9300915304109154042091EF
:103E00005504309156040627172728273927009391
:103E100053041093540420935504309356041F9177
:103E20000F910C94D5190895CF92DF92EF92FF92E3
:103E30000F931F93CF93DF93EC01C0905704D09062
:103E40005804E0905904F0905A04809153049091E2
:103E50005404A0915504B0915604C82AD92AEA2ADC
:103E6000FB2A0FE110E0B701A601002E04C07695F1
:103E70006795579547950A94D2F740FD05C00150C4
:103E8000110988F780E007C0BE01802F0E940A0850
:103E90000197A9F3802FDF91CF911F910F91FF9090
:103EA000EF90DF90CF900895CF93DF93EC010E94C5
:103EB000141FBE010E940A08DF91CF910895CB0123
:103EC0000E94541F089580915B0485958595859582
:103ED000089580915B048770089598E0899F900110
:103EE0001124622B60935B040C945E1E40915B0472
:103EF0008095842380935B04982F977069F450E039
:103F0000282F332727FD30954217530729F0859531
:103F1000859585950C947F1E089590915B0497700C
:103F200081E009F480E0089590918E029923D9F000
:103F300090917B029923B9F0982F96959695969536
:103F40009F3088F5E0917C02F0917D02E90FF11D30
:103F5000877021E030E001C0220F8A95EAF7818165
:103F6000822B8183089540917C0250917D0220E054
:103F700030E09FEFFA01E20FF31F6281681799F0BA
:103F80009F3F19F4611101C0922F2F5F3F4F2E30D8
:103F9000310581F79F3F39F0FA01E90FF11D97FDD7
:103FA000FA9582830895089590918E029923E1F005
:103FB00090917B029923C1F0982F969596959695AE
:103FC0009F3020F5E0917C02F0917D02E90FF11D18
:103FD000877021E030E001C0220F8A95EAF7209532
:103FE000818128232183089540917C0250917D0294
:103FF00020E030E0FA01E20FF31F9281981301C034
:1040000012822F5F3F4F2E303105A1F7089581E0D6
:1040100090E0E0917C02F0917D02E80FF91F1082A0
:10402000019680319105A9F7089590916F04982B1E
:1040300090936F040895809590916F0498239093C6
:104040006F04089510926F04089590916E04982B58
:1040500090936E040895809590916E0498239093A8
:104060006E04089510926E04089590916D04982B3B
:1040700090936D040895809590916D04982390938A
:104080006D04089510926D04089580935C04089562
:1040900010925C04089540917C0250917D0220E0D2
:1040A00030E080E0FA01E20FF31F918191118F5F00
:1040B0002F5F3F4F2F303105A9F70895E0917C0223
:1040C000F0917D0280916F048083E0917C02F091F9
:1040D0007D02808190916E04892B8083E0917C0227
:1040E000F0917D02808190916D04892B8083909165
:1040F0005C04992361F0E0917C02F0917D02808163
:10410000892B80830E944B20811110925C04809146
:104110007C0290917D020C94FA146DEE7EEF80E0AB
:1041200090E00E94D73160E082E090E00E94C531CB
:1041300060E083E090E00E94C53160E084E090E0C0
:104140000E94C53160E085E090E00E94C53160E0EA
:1041500086E090E00E94C5316FEF87E090E00C941C
:10416000C53180E090E00E94BF3121E08D3E9E4F3E
:1041700009F020E0822F089582E090E00C94B7319E
:1041800083E090E00C94B731682F83E090E00C94CA
:10419000C53184E090E00C94B731682F84E090E062
:1041A0000C94C53186E090E00C94B731682F86E01E
:1041B00090E00C94C53187E090E00C94B731682F03
:1041C00087E090E00C94C5318091A604843039F1E9
:1041D0001092710420E488E190E00FB6F894A8955D
:1041E000809360000FBE2093600080E00E949206E2
:1041F00080E00E94C30683B7817F846083BF83B75A
:10420000816083BF7894889583B78E7F83BF88E170
:104210000FB6F89480936000109260000FBE08956E
:1042200008950895CF9380E00E9492060E94102185
:104230000E94060B0E941121C0E08C2F0E94A70B48
:10424000892B29F4CF5FC430C1F780E001C081E041
:10425000CF9108950E94E91980E00E9492060E9481
:104260003C260E94EE140C94C3061F920F920FB6C8
:104270000F9211248F939F93AF93BF9380917104FA
:10428000811113C08091720490917304A091740401
:10429000B09175044196A11DB11D80937204909355
:1042A0007304A0937404B0937504BF91AF919F9170
:1042B0008F910F900FBE0F901F90189582E084BDD4
:1042C00093E095BD9AEF97BD80936E0008952FB748
:1042D000F8948091720490917304A0917404B09149
:1042E00075042FBF0895CF92DF92EF92FF920F9344
:1042F0001F932FB7F894409172045091730460910A
:104300007404709175042FBF6A017B01EE24FF24B1
:104310008C0120E030E0C016D106E206F30610F46E
:1043200041505109481B590BCA011F910F91FF9031
:10433000EF90DF90CF9008951F920F920FB60F92DB
:1043400011248F939F93AF93BF93809172049091A8
:104350007304A0917404B09175040196A11DB11D60
:104360008093720490937304A0937404B0937504C3
:10437000BF91AF919F918F910F900FBE0F901F90A3
:1043800018950E94C62AF8942FEF87EA91E62150EB
:1043900080409040E1F700C0000087E090EBDC0136
:1043A0008093AF049093B004A093B104B093B2048F
:1043B0002CE088E190E00FB6F894A8958093600017
:1043C0000FBE20936000FFCF0E94B120811102C078
:1043D0000E948D200E94BC20809370040E94C920FE
:1043E00090E09093A00480939F0487FB882780F936
:1043F00080937B020E94C020682F70E080E090E0F4
:104400000C94E71D8091780480FF0BC060918102BD
:1044100085E0689FB001112475956795759567953E
:104420002AC081FF09C06091810285E0689FB001C8
:104430001124759567951FC082FF07C060918102A6
:1044400085E0689FB001112416C04091790444238F
:10445000C9F060918002461788F72091810285E0BB
:10446000289F90011124429FC001439F900D112469
:1044700070E00E949D316038710540F4611571054E
:1044800039F002C065E070E0862F08958FE7089547
:1044900081E008958091780480FF08C060917F02D8
:1044A00070E0759567957595679521C081FF06C089
:1044B00060917F0270E07595679519C082FF04C016
:1044C00060917F0270E010C0809179048823C1F070
:1044D00060917E028617A0F790917F02989FC0019D
:1044E000112470E00E949D316038710528F4611537
:1044F000710521F0862F08958FE7089581E00895D2
:1045000061E070E0F4CF803F21F40E9402228195A7
:1045100004C0813F29F40E94022280937C04089504
:10452000823F21F40E940222819504C0833F29F436
:104530000E94022280937B040895893F19F40E940F
:104540004A2205C08A3F31F40E944A228195809315
:104550007D0408958B3F21F40E944A22819504C076
:104560008C3F29F40E944A2280937E040895843F60
:1045700021F480917A04816017C0853F21F48091F5
:104580007A04826011C0863F21F480917A048460AD
:104590000BC0873F21F480917A04886005C0883F72
:1045A00031F480917A04806180937A0408958D3F7C
:1045B00021F48091780481600BC08E3F21F48091BA
:1045C0007804826005C08F3F29F48091780484606C
:1045D000809378040895803F39F480917C0487FFAC
:1045E0006CC010927C0469C0813F29F480917C04E6
:1045F0001816BCF362C090917B04823F29F497FFA8
:104600005CC010927B0459C0833F19F41916CCF397
:1046100054C0893F41F480917D0418160CF04DC0C0
:1046200010927D044AC08A3F29F480917D0487FF5F
:1046300044C0F6CF8B3F39F480917E0487FF3DC0A4
:1046400010927E043AC08C3F29F480917E041816A3
:10465000BCF333C0843F21F480917A048E7F17C06D
:10466000853F21F480917A048D7F11C0863F21F42B
:1046700080917A048B7F0BC0873F21F480917A046C
:10468000877F05C0883F31F480917A048F7E8093C4
:104690007A0413C08D3F21F4809178048E7F0BC083
:1046A0008E3F21F4809178048D7F05C08F3F29F4DF
:1046B000809178048B7F8093780480917B048111B2
:1046C0000EC080917C0481110AC080917D0481110B
:1046D00006C080917E04811102C010927904089571
:1046E0008AE794E00E9405150E9467219093770461
:1046F0008093760408951F93CF93DF93809176047F
:10470000909177040E94732140917904442321F011
:104710002091820230E006C0209183025AE0259F5A
:10472000900111248217930708F482C080917B04C2
:1047300010917C04D0917D04C0917E04811107C04A
:10474000111105C0D11103C0CC2309F471C04F3F32
:1047500019F04F5F40937904181624F40E94022246
:1047600080937B0480917B0487FF05C00E94022216
:10477000819580937B04111624F40E940222809379
:104780007C0480917C0487FF05C00E9402228195F1
:1047900080937C0460917B04662339F110917C0442
:1047A000112319F1772767FD7095872F972F0E94A6
:1047B000BF2E23E333E343E35FE30E94CF2F0E9446
:1047C0008C2E60937B04612F772767FD7095872F70
:1047D000972F0E94BF2E23E333E343E35FE30E945E
:1047E000CF2F0E948C2E60937C041D1624F40E940F
:1047F0004A2280937D0480917D0487FF05C00E943A
:104800004A22819580937D041C1624F40E944A223A
:1048100080937E0480917E0487FF05C00E944A2217
:10482000819580937E04DF91CF911F910C9470232A
:10483000DF91CF911F910895EAE7F4E085E0DF0171
:104840001D928A95E9F710927904109278040895E0
:10485000833081F128F4813059F08230D1F008950D
:10486000853009F449C0B8F1863009F456C008957E
:1048700020918302862F90E0820F911D8F3F91053A
:1048800020F4620F6093830208958FEF8093830278
:10489000089520918202862F90E0820F911D8F3F14
:1048A000910520F4620F6093820208958FEF809348
:1048B0008202089520918102862F90E0820F911D3F
:1048C0008F3F910520F4620F6093810208958FEF6E
:1048D00080938102089520918002862F90E0820FBC
:1048E000911D8F3F910520F4620F6093800208951F
:1048F0008FEF80938002089520917F02862F90E0B1
:10490000820F911D8F3F910520F4620F60937F020B
:1049100008958FEF80937F02089520917E02862F65
:1049200090E0820F911D8F3F910520F4620F6093FC
:104930007E0208958FEF80937E020895833011F1F7
:1049400028F4813049F0823091F00895853081F16A
:1049500020F18630C1F1089580918302681720F418
:10496000861B80938302089510928302089580919C
:104970008202681720F4861B8093820208951092A9
:104980008202089580918102681720F4861B80932B
:104990008102089510928102089580918002681723
:1049A00020F4861B8093800208951092800208955F
:1049B00080917F02681720F4861B80937F02089500
:1049C00010927F02089580917E02681720F4861B62
:1049D00080937E02089510927E020895873220F51A
:1049E0008E3108F08EC0803109F46FC070F48730CA
:1049F00009F447C018F4863089F12EC08B3009F4D1
:104A000096C08E3009F457C027C0863109F48FC094
:104A100020F4813109F46AC01FC0893109F487C0CC
:104A20008B3109F43EC018C0883309F480C050F4BB
:104A3000893209F474C0853309F471C0873209F4EE
:104A40006EC00AC0833409F46AC020F48A3308F0C7
:104A500056C002C0883461F080E0089580917004EF
:104A6000817F8E7F8093700481E08093800408951D
:104A70000E94E9190E94870D0E9407060E94C12129
:104A800056C090917004892F8095817080FB90F9B9
:104A900019F09660986027C0997F977F9093700473
:104AA00046C09091700491FB882780F921E082270D
:104AB00080FB91F913C09091700492FB882780F9D4
:104AC00021E0822780FB92F909C09091700493FB4A
:104AD000882780F921E0822780FB93F99093700466
:104AE000882329F191609093700408950E94E91938
:104AF00080917B0291E0892780937B0218C027EC8C
:104B000001C023EE280F61E070E080E090E004C077
:104B1000660F771F881F991F2A95D2F704C061E09E
:104B200070E080E090E00E94E71D0E94E91981E0BA
:104B3000089580E0089580E008958E518A3030F421
:104B4000E82FF0E0E25DFC4F8081089580E0089559
:104B5000CF93C82F80918004813069F018F08230A3
:104B6000B1F180C0E0917C02F0917D0280818232BF
:104B700009F07AC007C0E0917C02F0917D0280814B
:104B8000823249F48C2F0E94992581111DC08C2FEF
:104B90000E94EE241AC08C2F0E949B25811114C004
:104BA000C43179F048F4CB3079F0C03109F060C0FD
:104BB00082E08093800408C0C93219F0C83321F024
:104BC00057C01092800454C081E0817053C0C93234
:104BD00089F118F5C43171F1B0F4C73009F046C05D
:104BE0008EE18093830282E3809382028AE0809345
:104BF000810284E18093800288E080937F0288E2D2
:104C000080937E0233C082EE8C0F863078F58C2F35
:104C10000E949D2580937F0429C0CE34E9F020F4C2
:104C2000CB3421F56AE013C0C13579F0C235F1F417
:104C300061E00DC080917F04882319F010927F04F9
:104C400015C081E08093800415C061E006C08091AA
:104C50007F040E9428240AC06AE080917F040E9499
:104C60009E2404C01092800480E004C081E002C051
:104C700080E0ABCFCF9108950E94B120811102C096
:104C80000E948D200E94D2208093A10480FF02C048
:104C9000869501C080E00C9492068091A104982F23
:104CA0009695292F30E0233031054CF49F5F990F02
:104CB0008170892B81608093A1040E94D62080910D
:104CC000A10486950C9492068091A104982F969544
:104CD00091F09158990F8170892B8093A1048E7F58
:104CE00091E009F490E08091A10490FB80F9809319
:104CF000A1040E94D6208091A10486950C9492066E
:104D00008091A104982F909590FB80F98093A10445
:104D10000E94D6208091A10480FF02C0869501C028
:104D200080E00C9492063091A104232F26952F5FEA
:104D30002F77822F90E0317004972CF4220F232BD1
:104D40002093A10402C03093A1048091A1048E7F1E
:104D500091E009F490E08091A10490FB80F98093A8
:104D6000A1040E94D6208091A10486950C949206FD
:104D70002091A104922F96959827990F822F8170E8
:104D8000892B8093A1048E7F91E009F490E08091BB
:104D9000A10490FB80F98093A1040E94D620809109
:104DA000A10486950C949206809191040895CF9366
:104DB000DF9300D01F92CDB7DEB72091A604243038
:104DC00019F523E029839B838A832093E9008FEFE1
:104DD0009091E800815095FD06C095ED9A95F1F708
:104DE00000008111F5CF8091E80085FF0DC040E003
:104DF00050E063E070E0CE0101960E94342980917A
:104E0000E8008E778093E8000F900F900F90DF916D
:104E1000CF910895CF93DF9300D01F92CDB7DEB727
:104E20002091A604243021F522E029839B838A83E4
:104E300083E08093E9008FEF9091E800815095FD29
:104E400006C095ED9A95F1F700008111F5CF80919C
:104E5000E80085FF0DC040E050E063E070E0CE0167
:104E600001960E9434298091E8008E778093E800B3
:104E70000F900F900F90DF91CF9108952091A6048D
:104E80002430F1F422E02093E9002FEF3091E80084
:104E9000215035FD06C035ED3A95F1F7000021119E
:104EA000F5CF2091E80025FF0BC040E050E065E021
:104EB00070E00E9434298091E8008E778093E800AA
:104EC0000895CF93DF93EC018091A604843009F01C
:104ED00046C090918E029923D9F090917B0299233C
:104EE000B9F08093E9008FEF9091E800815095FD33
:104EF00006C095E19A95F1F700008111F5CF8091F8
:104F0000E80085FF2CC040E050E060E170E017C091
:104F100081E08093E9008FEF9091E800815095FD4A
:104F200006C095ED9A95F1F700008111F5CF8091BB
:104F3000E80085FF14C040E050E068E070E0CE017A
:104F40000E9434298091E8008E778093E80080E108
:104F5000FE01A1E8B4E001900D928A95E1F7DF919E
:104F6000CF9108958091A504811109C00E94C62A9D
:104F70000E94232B8091E20084608093E2000895D8
:104F80001092A5040895089508950C942A2142E0F2
:104F900061EC81E00E94402A42E061EC82E00E94E4
:104FA000402A42E061EC83E00E94402A42E161EC49
:104FB00084E00C94402A8091A804833009F455C001
:104FC00030F4813071F0823009F48EC008958A3057
:104FD00009F47AC08B3009F460C0893009F09CC0B4
:104FE00020C08091A704813A09F096C08091E80022
:104FF000877F8093E8008091AB049091AC04892B6B
:1050000021F060E080E090E003C060E181E894E09E
:1050100070E00E947D298091E8008B778093E80002
:1050200008958091A704813209F076C08091AB0485
:105030009091AC04009719F0039709F06DC080912E
:10504000E800877F8093E8008091E80082FD05C03A
:105050008091A6048111F8CF5FC08091F100809308
:1050600091048091E8008B7753C08091A704813A26
:1050700009F052C08091AB049091AC04892B09F0E7
:105080004BC08091E800877F8093E8008091E80022
:1050900080FFFCCF80918E0236C08091A7048132C0
:1050A000D9F58091AB049091AC04892BA9F580913E
:1050B000E800877F8093E8000E94752A8091A90408
:1050C00080938E020C94E9198091A704813221F516
:1050D0008091E800877F8093E8000E94752A809184
:1050E000AA048093920408958091A704813AA1F4C0
:1050F0008091E800877F8093E8008091E80080FF3E
:10510000FCCF809192048093F1008091E8008E772B
:105110008093E8000C94752A089584B7877F84BF34
:1051200088E10FB6F89480936000109260000FBE83
:1051300080E880936100109261000E943D150E94FA
:10514000C62A0E94232B8091E20084608093E200B3
:1051500078940E949E2D0E943F1584E892E00E9460
:10516000E9148091A604853069F40E94E4208091BE
:10517000A4048823B1F30E941221882391F30E9492
:105180001E29EFCF0E944715ECCF292F332723305C
:105190003105A9F06CF42130310509F442C0223008
:1051A000310509F043C08DE690E028EB35E042C0C0
:1051B00021323105C9F02232310519F137C0992762
:1051C0008130910541F08230910541F0892B71F5D4
:1051D000E4EBF5E005C0E6E8F5E002C0ECE5F5E05B
:1051E000849190E09F0126C0643000F5E62FF0E046
:1051F000EE0FFF1FEC5BFC4F2081318189E090E0D6
:1052000019C0643098F4E62FF0E0DF01AA0FBB1F4D
:10521000A45CBC4F2D913C91E85CFC4F808190E0F8
:1052200009C082E190E025E236E004C080E090E031
:1052300020E030E0FA0131832083089580E189BDC8
:1052400082E189BD09B400FEFDCF8091D8008F7D39
:105250008093D8008091E00082608093E00080918C
:10526000E00081FDFCCF0895CF92DF92EF92FF9294
:105270000F931F93CF93DF937C018B01EA010E9470
:10528000962A811131C0209731F088819981081BBD
:10529000190BE80EF91EC12CD12C0115110519F1BD
:1052A0008091E80085FD14C08091E8008E7780939E
:1052B000E800209741F0888199818C0D9D1D99838C
:1052C000888385E011C00E94962A882331F30CC0A0
:1052D000F70181917F018093F10001501109FFEFE7
:1052E000CF1ADF0ADACF80E0DF91CF911F910F91C3
:1052F000FF90EF90DF90CF9008952091AD04309112
:10530000AE042617370748F06115710539F420916E
:10531000E8002E772093E80001C0B901FC0120E0ED
:1053200061157105B9F18091A604882309F440C084
:10533000853009F43FC08091E80083FD3DC0809135
:10534000E80082FF06C08091E80082FF26C080E06E
:1053500008958091E80080FFE3CF2091F3008091D1
:10536000F20090E0922B6115710551F088309105A3
:1053700038F421912093F100615071090196F3CF27
:1053800021E0089709F020E08091E8008E77809373
:10539000E800C6CF2111C7CFD6CF8091A6048823BD
:1053A00039F0853039F08091E80083FFCCCF04C01C
:1053B00082E0089583E0089581E008952091AD048E
:1053C0003091AE042617370748F06115710539F49E
:1053D0002091E8002E772093E80001C0B901FC017C
:1053E00020E061157105C1F18091A604882309F4BC
:1053F00041C0853009F440C08091E80083FD3EC083
:105400008091E80082FF06C08091E80082FF27C0FB
:1054100080E008958091E80080FFE3CF2091F300C1
:105420008091F20090E0922B6115710559F088305F
:10543000910540F424912093F10031966150710957
:105440000196F2CF21E0089709F020E08091E80072
:105450008E778093E800C5CF2111C6CFD5CF80913C
:10546000A604882339F0853039F08091E80083FF65
:10547000CBCF04C082E0089583E0089581E00895D1
:10548000982F973058F59093E900981739F070915C
:10549000EC002091ED005091F00003C0242F762FF6
:1054A00050E021FF19C03091EB003E7F3093EB00BC
:1054B0003091ED003D7F3093ED003091EB00316095
:1054C0003093EB007093EC002093ED005093F000CC
:1054D0002091EE0027FF07C09F5FD3CF8F7080938E
:1054E000E90081E0089580E008958091A70487FD98
:1054F00005C08091E80080FF0EC012C08091E800D6
:1055000082FD05C08091A6048111F8CF0895809195
:10551000E8008B7708C08091A6048111EACF089536
:105520008091E8008E778093E80008958091E400F0
:105530009091E50045E62091EC0020FF21C02091EC
:10554000E80020FD21C02091A604222389F0253007
:1055500089F02091EB0025FD0FC02091E4003091EF
:10556000E5002817390739F3415041F0C901E3CF6D
:1055700082E0089583E0089581E0089584E008952D
:105580002091E80022FFDFCF80E008950E94342BB5
:105590000E943C2BE0EEF0E0808181608083E8EDAA
:1055A000F0E080818F77808319BCA7EDB0E08C910B
:1055B0008E7F8C9380818F7E80831092A5040895C6
:1055C0000F931F93CF93DF930E94342B0E943C2BA9
:1055D000C8EDD0E088818F77888388818068888350
:1055E00088818F7D888319BC1092A6041092A20432
:1055F0001092A4041092A30400EE10E0F801808140
:105600008B7F808388818160888342E060E080E0D6
:105610000E94402AE1EEF0E080818E7F8083E2EEFE
:10562000F0E0808181608083808188608083F801E0
:1056300080818E7F8083888180618883DF91CF9194
:105640001F910F910895E8EDF0E080818F7E8083B7
:10565000E7EDF0E080818160808384E082BF81E0BB
:105660008093A5040C94E02AE8EDF0E080818E7F21
:1056700080831092E20008951092DA001092E10007
:1056800008951F920F920FB60F9211242F933F93FC
:105690004F935F936F937F938F939F93AF93BF933A
:1056A000EF93FF938091E10082FF0BC08091E200B5
:1056B00082FF07C08091E1008B7F8093E1000E9410
:1056C0009D2D8091DA0080FF1FC08091D80080FF5F
:1056D0001BC08091DA008E7F8093DA008091D90020
:1056E00080FF0DC080E189BD82E189BD09B400FE63
:1056F000FDCF81E08093A6040E94B22705C019BCAB
:105700001092A6040E94C0278091E10080FF19C07A
:105710008091E20080FF15C08091E2008E7F80932F
:10572000E2008091E20080618093E2008091D800E5
:1057300080628093D80019BC85E08093A6040E9403
:10574000C4278091E10084FF30C08091E20084FF93
:105750002CC080E189BD82E189BD09B400FEFDCF86
:105760008091D8008F7D8093D8008091E1008F7E5A
:105770008093E1008091E2008F7E8093E20080912F
:10578000E20081608093E2008091A204882311F0FE
:1057900084E007C08091E30087FF02C083E001C07E
:1057A00081E08093A6040E94C5278091E10083FFD9
:1057B00029C08091E20083FF25C08091E100877FAE
:1057C0008093E10082E08093A6041092A20480916D
:1057D000E1008E7F8093E1008091E2008E7F8093D4
:1057E000E2008091E20080618093E20042E060E0AC
:1057F00080E00E94402A8091F00088608093F00051
:105800000E94C327FF91EF91BF91AF919F918F911C
:105810007F916F915F914F913F912F910F900FBEAC
:105820000F901F9018951F920F920FB60F92112490
:105830002F933F934F935F936F937F938F939F9398
:10584000AF93BF93CF93EF93FF93C091E900CF70D5
:105850008091EC001092E9008091F000877F8093A6
:10586000F00078940E944F2C1092E9008091F00093
:1058700088608093F000C093E900FF91EF91CF9191
:10588000BF91AF919F918F917F916F915F914F9158
:105890003F912F910F900FBE0F901F9018951F935F
:1058A000CF93DF93CDB7DEB7AA970FB6F894DEBFDC
:1058B0000FBECDBFE7EAF4E08091F100819324E0D0
:1058C000EF3AF207C9F70E94DB278091E80083FFD7
:1058D0001CC12091A7043091A804832F90E08A3046
:1058E000910508F012C1FC01ED57FF4F0C94B13146
:1058F000203881F0223809F008C18091AB048F7004
:105900008093E9008091EB0085FB882780F9109255
:10591000E90006C08091A3049091A40491118260D3
:105920009091E800977F9093E8008093F1001092A7
:10593000F100C5C0822F8D7F09F0E7C0222319F046
:10594000223061F0E2C08091A904813009F0DDC00D
:10595000333009F080E08093A40428C08091A9042A
:10596000811124C02091AB042F7009F4CEC0209384
:10597000E9008091EB0080FF19C08091EB0033308B
:1059800011F4806211C080618093EB0081E090E0AF
:10599000022E01C0880F0A94EAF78093EA00109261
:1059A000EA008091EB0088608093EB001092E900A0
:1059B0008091E800877F86C02111A7C01091A904BB
:1059C0001F778091E3008078812B8093E3008091A2
:1059D000E800877F8093E8000E94752A8091E800A4
:1059E00080FFFCCF8091E30080688093E300112367
:1059F00011F083E001C082E08093A60486C02058A5
:105A0000223008F082C08091A9049091AA048C3DB4
:105A100023E0920779F583E08A838AE289834FB78E
:105A2000F894DE01139620E03EE051E2E32FF0E02F
:105A300050935700E49120FF03C0E295EF703F5F61
:105A4000EF708E2F90E0EA3010F0C79601C0C0963C
:105A50008D939D932F5F243149F74FBF8091E800CC
:105A6000877F8093E8006AE270E0CE0101960E9491
:105A70007D2914C0AE014F5F5F4F6091AB040E945F
:105A8000C528009709F441C02091E800277F2093A2
:105A9000E800BC0189819A810E94DE298091E8009A
:105AA0008B778093E80031C0203879F58091E80049
:105AB000877F8093E8008091A2048093F100809119
:105AC000E8008E778093E8000E94752A1EC021119D
:105AD0001CC09091A9049230C0F48091E800877FA7
