:100000000C949A030C94DE030C94DE030C94DE0330
:100010000C94DE030C94DE030C94DE030C94DE03DC
:100020000C94DE030C94DE030C9405170C94D71784
:100030000C9464250C94DE030C94DE030C94DE0314
:100040000C94DE030C94DE030C94DE030C94DE03AC
:100050000C94DE030C94CB250C94DE030C94DE038D
:100060000C94DE030C94DE030C94DE030C94DE038C
:100070000C94DE030C94DE030C94DE030C94DE037C
:100080000C94F50C0C94DE030C94DE030C94DE034C
:100090000C94DE030C94DE030C94DE030C94DE035C
:1000A0000C94DE030C94DE030C94DE03FF030F04B8
:1000B00021044C0431043304410479043C185E18D3
:1000C00049195E184919A018C318491918192B198C
:1000D0001D1C1D1C4C1C4C1C8C1CAE1CFD1DFD1D38
:1000E000B91CFD1D601D601DCA1DD21DFD1DF81D22
:1000F0006D1D6D1D6D1D6D1D6D1D6D1D6D1D6D1DB0
:100100006D1D6D1D6D1D6D1D6D1D6D1D6D1D6D1D9F
:100110007D1D8D1D941D9B1DA51D07634236B79B3C
:10012000D8A71A39685618AEBAAB558C1D3CB7CC57
:100130005763BD6DEDFD753EF6177231BF000000CF
:10014000803F08000000BE922449123EABAAAA2AB2
:10015000BECDCCCC4C3E00000080BEABAAAAAA3ECD
:1001600000000000BF000000803F00000000000809
:100170004178D3BB4387D1133D190E3CC3BD4282A6
:10018000AD2B3E68EC8276BED98FE1A93E4C80EF64
:10019000FFBE01C4FF7F3F000000000029001400E3
:1001A0001A00090013000A000D000F0018001C00BF
:1001B00033002A0039450400150016001700070017
:1001C0000B00110008000C00120034002B621D000F
:1001D0001B000600190005000E0010003600370055
:1001E00038002862E000E300E2004C002C43085491
:1001F00028002C4409532F0050004F002900140000
:100200001A000800150017001C0018000C0012004E
:1002100013002A00394504001600070009000A00EF
:100220000B000D000E000F00330034002B621D0088
:100230001B000600190005001100100036003700F1
:1002400038002862E000E300E2004C002C43085430
:1002500028002C4409532F0050004F0014001A00AE
:10026000090013000A0029002A000D000F001800E1
:100270001C00330004001500160017000700394564
:1002800034000B00110008000C0012001D001B00C0
:100290000600190005002B6228620E0010003600CF
:1002A00037003800E000E200E3002C432A00E100C0
:1002B000E50028002C442F0030004F0035024A0092
:1002C00052004D004B00010001002D022E002D00B8
:1002D0002E022A000100500051004F004E00010084
:1002E0000100260227022F02300231020100C10064
:1002F000C200C300C400010001002F0030004C0503
:100300002903075101000100010001000100010063
:1003100001000100A8002F003000AE0035001E02D1
:100320001F022002210222022302240225022602A9
:1003300027022A004C001E001F002000210022007E
:100340002300240025002600270031003A003B004E
:100350003C003D003E003F004000410042004300A1
:1003600044004500010001000100010001000100FE
:1003700001000100A800AA00A900AE000100F400DD
:10038000F000F500010001004B004A0052004D0052
:10039000010001000100F200F100F3000100010082
:1003A0004E00500051004F0001000100010001000B
:1003B0000100010001000100010001000100010035
:1003C0000100010001000100010001000100010025
:1003D0000100010001000100010001001E001E00DB
:1003E0001E001E001E001E001E001E001E001E001D
:1003F0001E001E00000014001A000800150017005F
:100400001C0018000C00120013002F000000040054
:100410001600070009000A000B000D000E000F0077
:10042000330034003C70000000000600190000009A
:10043000000011001000000000000000010000702A
:1004400001000100010001000100010001000100A4
:1004500001004C00010001000100157016701370BE
:100460000A703570367037703870010001001C70EA
:100470001B70187019701D701E70010001000100C2
:100480000100010001000100010001000100010064
:1004900001000100010001000100010001005108FC
:1004A000520850084F083B01010001000100010003
:1004B0000100A500010007081A0307093D093A01D8
:1004C00001000100010001000100010001000F080E
:1004D000B200A600B3003D040100010001000100CC
:1004E0000100010001000100010001000100010004
:1004F00001000100010001000100010001000100F4
:100500000100080015000100380024002500260025
:1005100046000100010001001600070009000A0062
:1005200025022100220023005300010001000100E8
:1005300001000100010001002D001E001F0020002D
:1005400001000100010001000100010001000100A3
:100550002E02270001002E00010001002803540094
:1005600068006500200050006C0061006E006300B0
:100570006B0020004B006500790062006F00610095
:100580007200640000002C034F00720074006800C9
:100590006F006C0069006E00650061007200200051
:1005A0004B006500790062006F006100720064001A
:1005B000730000000403090409026D00040100A097
:1005C000FA090400000103010100092111010001E1
:1005D0002240000705810308000A09040100010305
:1005E000010200092111010001224D0007058203CB
:1005F00008000A090402000103000000092111019A
:1006000000012236000705830308000A09040300DD
:100610000103000000092111010001223900070532
:1006200084031000011201100100000008EDFE60BB
:100630006001000102000105010906A10105071979
:10064000E029E715002501950875018102050819C3
:100650000129059505750191029501750391010523
:10066000071900297715002501957875018102C0C9
:1006700005010980A101850216010026B7001A01B3
:10068000002AB700751095018100C0050C0901A171
:10069000018503160100269C021A01002A9C02759E
:1006A0001095018100C005010902A1010901A10005
:1006B0000509190129051500250195057501810216
:1006C0009501750381010501093009311581257FE7
:1006D00095027508810609381581257F95017508F1
:1006E0008106050C0A38021581257F950175088160
:1006F00006C0C005010906A101050719E029E71593
:100700000025019508750181029501750881010593
:100710000819012905950575019102950175039147
:10072000010507190029FF150026FF009506750829
:100730008100C00011241FBECFEFDAE0DEBFCDBFC5
:1007400004B603FE24C080918E0490918F04A09182
:100750009004B09191048730904BA740B04BB9F40E
:1007600010928E0410928F041092900410929104B3
:1007700014BE84B7877F84BF88E10FB6F894809356
:100780006000109260000FBEE0E0F8E3099513E00E
:10079000A0E0B1E0ECE1FFE502C005900D92A033CE
:1007A000B107D9F714E0A0E3B3E001C01D92AE3861
:1007B000B107E1F70E9451140C948C2F0C940000A7
:1007C0006E9A769A0C94A404CF93DF93EC010E9466
:1007D0006826BE0180E090E0DF91CF910C94692201
:1007E0000F931F93855390478830910508F090C070
:1007F0008A5A9F4FFB012281FC010C94502F222327
:1008000009F486C000E010E0980140E064E070E088
:1008100088E292E00E94711082E090E00FC02223F3
:1008200009F476C000E010E0980140E066E070E076
:1008300088EB91E00E94711081E090E00E94E40357
:1008400067C0222309F464C000E010E0980140E092
:1008500068E070E088EE91E00E94711084E090E022
:10086000EDCF83E001C084E0222319F00E94E02252
:1008700002C00E94012347E064E083E00E94D504A7
:1008800047C085EE222329F00E94BB1A0E94192B33
:100890003FC00E94831B3CC02223D1F10E940B0C5D
:1008A00000E010E0980140E066E070E088E891E048
:1008B0000E94711084E00E94012383E00E940123C2
:1008C00087E00E94012386E00E94E0220E945526D4
:1008D000811102C00E9431260E946D2690E0909303
:1008E0007304809372048068809372040E9471265E
:1008F0000FC0222369F000E010E0980140E066E0BC
:1009000070E088E591E00E94711086E00E9401236A
:1009100081E01F910F9108950F931F932FEF89EF9F
:1009200090E0215080409040E1F700C0000000E0DE
:1009300010E0980140E065E070E088E492E00E94F9
:1009400071101F910F9108950C948C040F931F93B5
:1009500000E010E0980140E063E070E080E091E0AA
:100960000E9471102FEF82E597E021508040904067
:10097000E1F700C000001F910F910C940B0C0F9336
:100980001F9300E010E0980140E068E070E088E12B
:1009900091E00E9471101F910F9108950C94BF0473
:1009A00081E008950C94F0030895CF92DF92EF92C6
:1009B000FF920F931F9301E010E020E030E0680108
:1009C000790104C0CC0CDD1CEE1CFF1C8A95D2F70B
:1009D000D701C60104C0000F111F221F331F6A95E3
:1009E000D2F7802B912BA22BB32B009144041091B2
:1009F00045042091460430914704082319232A23F3
:100A00003B23081719072A073B0749F4842F1F9136
:100A10000F91FF90EF90DF90CF900C94E022842F05
:100A20001F910F91FF90EF90DF90CF900C940123D6
:100A300080918403882309F448C0809140039091F9
:100A40004103009779F40E94962590934103809387
:100A500040038091420390E0009771F4809143033A
:100A600090E00AC00E94A22520917002309171028C
:100A70002817390740F329C00197FC01EE0FFF1F2B
:100A8000EE0FFF1FEC5BFC4F6081718182819381CF
:100A90000E943E0CE091420384E0E89FF0011124A3
:100AA000EC5BFC4F60817181828193814FE050E06B
:100AB0000E9411108091420390E0019660914303DF
:100AC00070E00E943C2F809342030C94C30A109262
:100AD00086030C940B0C279A2F988FEF9FEF90931F
:100AE0008700809386008AE08093800089E180936C
:100AF00081000C94C22A0E946B050C94E0032F988D
:100B000081110AC080918000877F809380001092BD
:100B10008D0010928C000895833041F48091800004
:100B20008860809380008FEF9FEF12C090918000CB
:100B300098609093800023E030E0281B3109220F59
:100B4000331F8FEF9FEF02C0969587952A95E2F7A6
:100B500090938D0080938C00089508950C94AD05BA
:100B60000C94AE0581E0809386030C94CE04089526
:100B7000AF92BF92CF92DF92EF92FF920F931F93AB
:100B8000CF93DF93CDB7DEB7A3970FB6F894DEBF50
:100B90000FBECDBF5C01FC0100811181C8010E9424
:100BA0009623B8010E94200A8C01B5010E94D2044C
:100BB000882309F48EC20531F0E71F0739F4F501E7
:100BC0008281882389F10E94051183C20631F0E7F2
:100BD0001F0739F4F5018281882331F10E940E113B
:100BE00078C20731F0E71F0749F4F50182818823B5
:100BF00099F10E9401118111F1CFE5CF0831F0E7A1
:100C00001F0739F4F5018281882399F10E94B2050A
:100C100060C20931F0E71F0739F4F50182818823AA
:100C200041F10E94670555C20A31F0E71F0749F4F8
:100C3000F50182818823E9F0809186038111F1CF4B
:100C4000E5CF0B31F0E71F0739F4F50182818823E6
:100C500081F00E9415110AC00C31F0E71F0749F41A
:100C6000F5018281882329F00E9420110E94BF048F
:100C700030C280918603811105C0F5018281811106
:100C8000CCC00CC1003E110579F4F50182818823A6
:100C900009F44DC00E940B0C81E0809385031092F3
:100CA00084031092430315C2023E110559F4F50165
:100CB00082818823E1F10E940B0C1092850310922F
:100CC000840307C2033E110591F4F5018281882354
:100CD00071F10E940B0C1092850381E080938403D4
:100CE000109242031092410310924003F2C1023568
:100CF000110559F4F5018281882309F4EAC1809134
:100D00007002909171020A970DC00135110579F4B6
:100D1000F5018281882309F4DCC1809170029091F1
:100D200071020A969093710280937002D2C1209151
:100D3000740283E2EFE8F2E0DE01119601900D9279
:100D40008A95E1F7F5018081E1E0F0E0EC0FFD1F0D
:100D5000E80FF11D8091720290917302E80FF91F64
:100D60006081772767FD7095620F711D882777FD79
:100D70008095982F0E945E2C20E030E040E451E402
:100D80000E94C32B6B017C01F501818164E070E05E
:100D9000681B7109882777FD8095982F0E945E2C2B
:100DA0009B01AC01C701B6010E945B2B9B01AC010A
:100DB00060E070E080E090E40E94D12D20E030E01F
:100DC0004CED50E40E946E2D6B017C01F501828197
:100DD0008823D1F04FE050E0C701B6010E94111006
:100DE000809185038823A1F08091430324E0829FB2
:100DF000F0011124EC5BFC4FC082D182E282F382CD
:100E00008F5F8093430304C0C701B6010E943E0C6C
:100E10000F3F110508F031CF5CC180913F03811174
:100E200026C0043180E71807C9F50E94D40481E088
:100E300080933F030E94962590933E0380933D0349
:100E4000109232031092340310923303109236033F
:100E500010923503109238031092370310923A0320
:100E60001092390310923C0310923B0332C18091DF
:100E70003D0390913E030E94A225883C910570F4A9
:100E800080913203E82FF0E0EE0FFF1FED5CFC4F86
:100E9000118300838F5F809332031BC1043190E77D
:100EA000190760F40230E0E71E07A0F50115F0E72E
:100EB0001F0771F00130104711F1F3C0033380E7D1
:100EC000180709F4C2C00433104709F4D2C0E9C0BE
:100ED000F5018281882309F4E9C00E946B1E0E94FB
:100EE0000B0C0E94A604FFEF24E38CE0F15020409D
:100EF0008040E1F700C000000E94F025EAC0F50143
:100F00008281882309F4D2C080916104816080933A
:100F10006104DFC0F5018281882309F4C7C00E9403
:100F20005526811102C00E9431260E946D2690E054
:100F300090937304809372040230F0E71F0721F44A
:100F40008091720481607AC0033020E7120721F497
:100F500080917204826072C0043080E7180721F427
:100F60008091720484606AC0053090E7190719F413
:100F70008091720427C00630E0E71E0721F48091BB
:100F8000720480615BC00730F0E71F0721F4809195
:100F90007204806253C0083020E7120721F4809168
:100FA000720480644BC0093080E7180721F48091F7
:100FB0007204806843C00A3090E7190729F48091D1
:100FC0007204846088603AC00B30E0E71E0721F4A9
:100FD000809172048E7F32C00C30F0E71F0721F43D
:100FE000809172048D7F2AC00D3020E7120721F412
:100FF000809172048B7F22C00E3080E7180719F4AD
:10100000809172041AC0809172040F3090E7190722
:1010100011F48F7E13C00031E0E71E0711F48F7DBD
:101020000DC00131F0E71F0711F48F7B07C00231BB
:10103000104711F48F7702C08B7F877F80937204F3
:10104000809172040E94712644C0F5018281882338
:1010500021F01092300382E013C08091300381119F
:1010600006C086E20E94BB1A86E20E94831B82E0D1
:1010700015C0F5018281882331F01092310380E29E
:101080000E94D21B26C080913103811106C087E2E5
:101090000E94BB1A87E20E94831B80E20E94D91B38
:1010A00018C081E08093300380933103C501A3967B
:1010B0000FB6F894DEBF0FBECDBFDF91CF911F9169
:1010C0000F91FF90EF90DF90CF90BF90AF900C9476
:1010D000D00480E0A3960FB6F894DEBF0FBECDBF5C
:1010E000DF91CF911F910F91FF90EF90DF90CF9004
:1010F000BF90AF9008952CE0729FF001112430E36F
:10110000839FE00DF11D1124E60FF11DEE0FFF1F6F
:10111000E456FE4F859194910E94320A811540E574
:10112000940708F047C0811520E4920708F013C126
:10113000883E910520F5803E910508F07CC1883AF3
:10114000910578F4853A910508F0A5C081309105A4
:1011500009F471C108F42EC18430910508F06BC107
:1011600029C18B3B910508F4A1C0803C910508F48E
:1011700021C1FC01EE0FFF1FE452FC4FE6C08115B8
:1011800030E2930758F4811541E0940708F053C109
:10119000803F910508F40EC190650895811520E304
:1011A000920708F0D5C09F70880F991F845A9A4FF4
:1011B000FC01CBC0811535E5930708F043C08115CC
:1011C00044E5940708F0DEC0811522E5920708F592
:1011D000811531E5930708F0C1C0482F437021E025
:1011E00030E002C0220F331F4A95E2F73C68AC01A1
:1011F00064E0569547956A95E1F74370342B8F70FC
:101200008695869540E2849FC0011124822B932B02
:101210000895282F26952695AC01437055278115F2
:10122000934508F0A0C030E2239FC001112421E0C3
:1012300030E002C0220F331F4A95E2F7822B932B36
:101240009C6808958F3240E7940790F48F3120E72F
:10125000920708F0A2C0811536E5930708F497C0FD
:101260009C0130562115304108F0A4C09F7093C0F6
:10127000803320E7920709F497C008F492C08133C5
:1012800040E7940709F493C08233904709F092C075
:1012900080E093ED0895853A910509F48EC0863A71
:1012A000910509F48DC083E890E40895883A91058A
:1012B00009F489C0893A910509F488C08A3A9105F0
:1012C00009F487C08B3A910509F486C08C3A9105E0
:1012D00009F485C08D3A910509F484C0803B9105DD
:1012E00009F483C08E3A910509F482C08F3A9105C2
:1012F00009F481C0813B910509F480C0823B9105CE
:1013000009F47FC0833B910509F47EC0843B9105BD
:1013100009F47DC0853B910509F47CC0863B9105AD
:1013200009F47BC0873B910509F47AC0883B91059D
:1013300009F479C0893B910509F478C08A3B91058D
:1013400009F077C08AE296E4089585919491089512
:101350009927906C08959F70906A0895982F882718
:10136000816F906A089530E2239FC001112421E02B
:1013700030E002C0220F331F4A95E2F7822B932BF5
:101380009A680895982F8827846F906A08958F71BE
:101390009927982F8827906208958F519047946DD0
:1013A000089580E091ED089580E090ED089580E04B
:1013B00092ED089580E090E0089581E890E408952A
:1013C00082E890E4089582EE94E4089589EE94E42E
:1013D00008958AEE94E4089585EB94E4089586EBED
:1013E00094E4089587EB94E408958CEC94E40895D4
:1013F0008DEC94E4089583E895E408958AE895E4F3
:10140000089582E995E4089584E995E4089581E2D8
:1014100096E4089583E296E4089584E296E40895BC
:1014200085E296E4089586E296E4089587E296E4DC
:10143000089580E094E4089580E090E00895089590
:101440009CE0799FF001112490E3899FE00DF11D4C
:101450001124E60FF11DEE0FFF1FE456FE4F85919C
:10146000949108958238910549F1B0F48133910542
:1014700009F459C048F48932910509F44FC08A3201
:10148000910509F455C008958533910509F441C0CB
:101490008933910599F00895833E910531F138F42F
:1014A000803E910591F0823E9105A9F00895863E17
:1014B000910501F1873E910539F10895209172045B
:1014C00020FD3BC021FD39C008958091720480FF4A
:1014D00034C089E341C08091720482FF32C08091A0
:1014E000720484FF2CC080E037C08091720482FDBA
:1014F00028C0F5CF8091720483FF25C080917204CB
:1015000084FDF1CF87EE28C08091720483FD1BC05B
:10151000F5CF8091720485FF18C019C080917204C4
:1015200085FF15C012C08091720486FF12C013C0DF
:101530008091720486FF0FC00CC080EE0DC083EE58
:101540000BC082EE09C086EE07C085E305C089E2C4
:1015500003C081E301C08AE290E00895E82FF0E043
:10156000E254FD4F8081E82FE295EF70F0E0282FE4
:101570002F7081E090E0022E01C0880F0A94EAF7F4
:1015800080A3089508950C94C20AEF92FF920F93DE
:101590001F93CF93DF9302EC12E0E801EE24E39473
:1015A000F12C8A91E82FE295EF70F0E021A18F7085
:1015B000A70102C0440F551F8A95E2F7242B21A3EF
:1015C0008C2F8C5F801B0E94AE0A52E0CE3BD50769
:1015D00041F7EEEBF2E021E030E08291A82FA295F6
:1015E000AF70B0E092964C9192978F70B90102C0A3
:1015F000660F771F8A95E2F7462B92964C9372E01E
:10160000E23BF70751F7DF91CF911F910F91FF90C8
:10161000EF900895EF92FF920F931F93CF93DF9374
:1016200085B7806885BF85B7806885BF02EC12E00A
:10163000E801EE24E394F12C8A91E82FE295EF7013
:10164000F0E021A18F70A70102C0440F551F8A95B9
:10165000E2F7242B21A38C2F8C5F801B0E94AE0A03
:1016600052E0CE3BD50741F7EEEBF2E021E030E06F
:101670008291A82FA295AF70B0E092964C9192976C
:101680008F70B90102C0660F771F8A95E2F7462B6B
:1016900092964C9372E0E23BF70751F7DF91CF91BE
:1016A0001F910F91FF90EF900C947B05EF92FF92AA
:1016B0000F931F93CF93DF93CFE8D3E023E0E22E85
:1016C00001E010E035E0F32E8E2D0E94AE0AEEEB25
:1016D000F2E04BE050E020E030E08291A82FA295AC
:1016E000AF70B0E090966C9170E08F7002C075950D
:1016F00067958A95E2F760FD09C0B801042E02C023
:10170000660F771F0A94E2F7262B372B41505109B9
:1017100020F75A914A914217530721F039832883C1
:10172000F09275028E2D0E94AE0AEA949FEFE912A4
:10173000CBCF8091750287FD2CC0815080937502BC
:101740008F3F09F580918D0390918E0390939603BE
:101750008093950380918B0390918C0390939403D5
:10176000809393038091890390918A0390939203CD
:1017700080939103809187039091880390939003C5
:1017800080938F0306C08FE99FE00197F1F700C0B7
:1017900000000E94180581E0DF91CF911F910F9109
:1017A000FF90EF900895E82FF0E0EE0FFF1FE15754
:1017B000FC4F80819181089508951F93CF93DF930B
:1017C000C7E9D3E010E09A918A910E940F25180F83
:1017D00083E0CF38D807B9F7812FDF91CF911F91E0
:1017E00008950E945526811102C00E9431260E9450
:1017F0007F26809378043E9A809171008D7F80933C
:10180000710082E0809390008AE18093910081E0F2
:1018100080939903089580919903811102C00E94D9
:10182000F10B1092E9031092E803809171008D7F13
:1018300080937100809190008F738093900010923C
:10184000AB031092AA031092E2031092E3031092EA
:10185000E4031092E5031092E1031092E003E0EC40
:10186000F3E0A0EBB3E011921192119211921D924C
:101870001D9283E0E03EF807B1F708958F929F92A2
:10188000AF92BF92CF92DF92EF92FF920F931F938E
:10189000CF93DF936B017C018091AA03882309F425
:1018A00097C080919903811102C00E94F10B00EE54
:1018B00013E0C7E0D0E0A7019601D8019E918E9178
:1018C0007E916E918D010E94BF2B811145C0FE015A
:1018D000EE0FFF1FEE0FFF1FE054FC4F108211822E
:1018E000128213829E01220F331F20553C4FD901D3
:1018F0001D921C9240E050E060E070E06C5F7F4F12
:101900004E5F5F4FC730D10551F121967F01E60E42
:10191000F71ED7018D909D90AD90BC90870104502B
:101920001109D8018D929D92AD92BC921397D70167
:101930001D921D921D921C9213977901E40EF51EC3
:10194000D7010D911C91C7010297DC010D931C93E7
:10195000D7011D921C92D2CF219708F0ACCF809175
:10196000E8039091E903019797FD05C09093E9037F
:101970008093E80304C01092E9031092E803809179
:10198000E8039091E9032091E6033091E7032817DB
:10199000390724F01092E7031092E603892BC1F473
:1019A000809171008D7F80937100809190008F7382
:1019B000809390001092E2031092E3031092E403EC
:1019C0001092E5031092E1031092E0031092AA0333
:1019D000DF91CF911F910F91FF90EF90DF90CF900B
:1019E000BF90AF909F908F9008951F920F920FB667
:1019F0000F9211244F925F926F927F928F929F92DB
:101A0000AF92BF92CF92DF92EF92FF922F933F93CC
:101A10004F935F936F937F938F939F93AF93BF93F6
:101A2000CF93DF93EF93FF938091AA03882309F468
:101A30009AC1C091E803D091E9031C161D060CF071
:101A400092C140909A0350909B0360909C037090C9
:101A50009D0320E030E0A901C301B2010E946A2D7C
:101A600018160CF065C0C130D10509F452C0809140
:101A7000E6039091E703BE010E943C2F5C01909326
:101A8000E7038093E603C090AC03D090AD03E090F1
:101A9000AE03F090AF0320E030E040E85FE3C70121
:101AA000B6010E945B2B6093AC037093AD038093EF
:101AB000AE039093AF03F501EE0FFF1FEE0FFF1F74
:101AC000E054FC4FA3019201608171818281938176
:101AD0000E94C32B20E030E040E05EE30E946E2DC8
:101AE0009B01AC01C701B6010E946A2D18168CF447
:101AF000C5010196BE010E943C2F9093E70380939D
:101B0000E6031092AC031092AD031092AE03109254
:101B1000AF03E091E603F091E703EE0FFF1FEE0F36
:101B2000FF1FE054FC4F6081718182819381CFC09F
:101B3000C090E203D090E303E090E403F090E5036B
:101B400020E030E0A901C701B6010E94BF2B219718
:101B5000882309F4A2C0FE01EE0FFF1FEE0FFF1F46
:101B6000E054FC4F80809180A280B380A501940155
:101B7000C701B6010E94BF2B87FF31C0A5019401A8
:101B800060E070E08CED93EC0E94C32B20E030E02D
:101B900040E451E40E94C32B20E030E040E05FE3EA
:101BA0000E946E2D9B01AC0160E070E080E090E44B
:101BB0000E94D12D9B01AC01C501B4010E946E2D84
:101BC0009B01AC01C701B6010E94BF2B87FF07C074
:101BD000A701960160E070E08CED93E439C0A501A7
:101BE0009401C701B6010E946A2D18160CF055C069
:101BF000A501940160E070E08CED93E40E94C32B9A
:101C000020E030E040E451E40E94C32B20E030E0CB
:101C100040E05FE30E946E2D9B01AC0160E070E04C
:101C200080E090E40E94D12D9B01AC01C501B4017C
:101C30000E946E2D9B01AC01C701B6010E946A2D66
:101C400018165CF5A701960160E070E08CED93EC4E
:101C50000E94C32B20E030E040E451E40E94C32BFB
:101C600020E030E040E05FE30E946E2D9B01AC017C
:101C700060E070E080E090E40E94D12D9B01AC0117
:101C8000C701B6010E946E2D6093E2037093E303D7
:101C90008093E4039093E50312C0CC0FDD1FCC0FBB
:101CA000DD1FC054DC4F88819981AA81BB8180935C
:101CB000E2039093E303A093E403B093E503609100
:101CC000E2037091E3038091E4039091E503209196
:101CD0009703309198032F3F4FEF340731F02F5F78
:101CE0003F4F30939803209397030E942B116B0171
:101CF0007C0120E034E244EF51E40E94BF2B87FFD7
:101D000008C026EFC22E28E2D22E24EFE22E21E4D4
:101D1000F22E20E030E040E051E4C701B6010E941D
:101D20006E2D9B01AC0160E074E284E79BE40E94AD
:101D3000C32B6B017C010E94302C70939700609341
:101D4000960020917602309177024091780250916E
:101D50007902C701B6010E946E2D0E94302C70934B
:101D60009900609398008091AB03882309F432C1F5
:101D7000C090A603D090A703E090A803F090A90319
:101D800020E030E0A901C701B6010E946A2D1816B3
:101D9000D4F580919703909198038F3F2FEF92078E
:101DA00029F001969093980380939703C701B60199
:101DB0000E942B1120E030E040E051E40E946E2DA3
:101DC0009B01AC0160E074E284E79BE40E94C32BBA
:101DD0006B017C010E94302C7093970060939600F9
:101DE00020917602309177024091780250917902E9
:101DF000C701B6010E946E2D0E94302C709399008D
:101E00006093980008C0109297001092960010926C
:101E10009900109298006091A0037091A1036F5FE8
:101E20007F4F7093A1036093A0032091960030919F
:101E3000970080E090E0232BF1F0C0919600D091C4
:101E400097000E945C2C6B017C01BE0180E090E059
:101E50000E945C2C9B01AC016091A2037091A303D2
:101E60008091A4039091A5030E94C32B20E03FEF33
:101E70004FE757E410C00E945C2C6B017C0120E00E
:101E800030EE4FEF54E46091A2037091A303809170
:101E9000A4039091A5030E946E2D9B01AC01C70184
:101EA000B6010E946A2D87FD95C020919E032F5F89
:101EB00020939E0330E0809174049091750428175C
:101EC0003907A0F080917F04882319F010929E03B7
:101ED0000DC0809171008D7F809371008091900082
:101EE0008F73809390001092AB037CC080919F030E
:101EF000C0919E03811128C0C0907904D0907A04CB
:101F0000E0907B04F0907C0420E030E0A901C70160
:101F1000B6010E946A2D1816BCF481E080939F03DD
:101F20001092A6031092A7031092A8031092A9037F
:101F3000C092A203D092A303E092A403F092A5035F
:101F4000C150C0939E0342C010929F031092980309
:101F500010929703E0917604F091770448E0C49FD3
:101F6000E00DF11D112480819181A281B3818093C4
:101F7000A6039093A703A093A803B093A90320E01E
:101F800030E040E85EE364817581868197810E943C
:101F90006E2D6B017C0160917A0270E080E090E030
:101FA0000E945C2C20E030E048EC52E40E94C32BFD
:101FB0009B01AC01C701B6010E946E2D6093A20384
:101FC0007093A3038093A4039093A5031092A1039D
:101FD0001092A0038091780480FD04C01092AB039E
:101FE0001092AA03FF91EF91DF91CF91BF91AF9132
:101FF0009F918F917F916F915F914F913F912F9121
:10200000FF90EF90DF90CF90BF90AF909F908F9018
:102010007F906F905F904F900F900FBE0F901F902A
:102020001895CF92DF92EF92FF92CF93DF936B01DF
:102030007C01EA0180919903811102C00E94F10B99
:102040008091780480FF46C08091E8039091E90375
:1020500008970CF03FC0809171008D7F80937100D4
:102060008091AB0381110E940B0C81E08093AA0345
:10207000109298031092970320E030E0A901C70165
:10208000B6010E946A2D1816DCF48091E803909145
:10209000E903FC01EE0FFF1FEE0FFF1FE054FC4FA2
:1020A000C082D182E282F382FC01EE0FFF1FE05575
:1020B000FC4FD183C08301969093E9038093E8039A
:1020C000809171008260809371008091900080689F
:1020D00080939000DF91CF91FF90EF90DF90CF90B1
:1020E00008959F92AF92BF92CF92DF92EF92FF92AC
:1020F0000F931F93CF93DF93EC015B01942E680144
:10210000790180919903811102C00E94F10B8091A5
:10211000780480FF6AC0809171008D7F8093710088
:102120008091AA0381110E940B0C81E08093AB0384
:10213000D0937704C0937604B0927504A09274048F
:1021400090927F04C0927904D0927A04E0927B044A
:10215000F0927C041092AC031092AD031092AE0387
:102160001092AF0310929E0388819981AA81BB814E
:102170008093A6039093A703A093A803B093A90309
:1021800020E030E040E85EE36C817D818E819F81BC
:102190000E946E2D6B017C0160917A0270E080E0FC
:1021A00090E00E945C2C20E030E048EC52E40E9479
:1021B000C32B9B01AC01C701B6010E946E2D609339
:1021C000A2037093A3038093A4039093A50310929A
:1021D000A1031092A003809171008260809371002E
:1021E00080919000806880939000DF91CF911F9143
:1021F0000F91FF90EF90DF90CF90BF90AF909F90A6
:1022000008958091780481700895809178048160A8
:10221000809378040E9483260C94B70580917804FB
:102220008E7F809378040C9483268091EA0390E05B
:10223000019666E070E00E943C2F8093EA030895C7
:102240008091EA0390E0019766E070E00E943C2FE5
:102250008093EA0308958F929F92AF92BF92CF929C
:10226000DF92EF92FF92CF93DF936B017C01C091DD
:102270009703D0919803BE0180E090E00E945C2C0F
:102280004B015C01A701960160E070E08CE594E4ED
:102290000E94C32B9B01AC01C501B4010E946E2DAD
:1022A0000E94302C9B014091EA03433009F473C033
:1022B00028F4442351F04130E9F02DC1443009F4B1
:1022C000A0C0453009F4E0C026C180E090E0A0E065
:1022D000BFE38093760290937702A0937802B09345
:1022E000790210929A0310929B0310929C03109211
:1022F0009D0311C110929A0310929B0310929C03AC
:1023000010929D036431710540F46A30710560F5E7
:1023100020E030E040E85EE32BC0693C710508F046
:10232000AAC080E090E00E945C2C20E030E040EA0F
:1023300051E40E945A2B20E030E044E353E40E9431
:10234000C32B9B01AC010E946E2D20E030E040E0E9
:102350005EE30E946E2D9B01AC0160E070E080E0C6
:102360009EE30E945A2B44C020E030E040E05FE34F
:10237000C701B6010E946E2D6B017C0180E090E0E8
:10238000A0E0BEE38093760290937702A093780258
:10239000B0937902C0C010929A0310929B031092DE
:1023A0009C0310929D034AE0469F9001479F300D89
:1023B0001124C90168EB7BE00E94282FBC016C5DF1
:1023C000754077FF03C0719561957109882777FD86
:1023D0008095982F0E945E2C2EE333EC4EE259E359
:1023E0000E946E2D20E030E040EC5EE30E945B2B0B
:1023F00060937602709377028093780290937902CB
:102400008AC010929A0310929B0310929C03109220
:102410009D03CE0183709927892BE1F0BE01617085
:10242000772780E090E00E945C2C20E030E040E0E4
:102430005EE30E946E2D20E030E040E45FE30E9406
:102440005B2B60937602709377028093780290936F
:1024500079020CC080E090E0A0E0BFE380937602B8
:1024600090937702A0937802B0937902C770DD272A
:10247000CD2B09F050C01092760210927702109284
:1024800078021092790247C010929A0310929B032F
:1024900010929C0310929D03812C912CA12C9FE300
:1024A000B92E8092760290927702A0927802B09232
:1024B00079022739310578F180E090E00E945C2CA8
:1024C00020E030E047E153E40E945A2B20E030E066
:1024D0004AE754E40E94C32B20E030E048E452E491
:1024E0000E946E2D20E030E040EA51E40E94A02CD2
:1024F0000E942B2CFB01EE0FFF1FEE0FFF1FEE5370
:10250000FD4F2081318142815381C701B6010E9474
:102510006E2D6B017C01C701B601DF91CF91FF9059
:10252000EF90DF90CF90BF90AF909F908F900895E5
:102530008091FB030895CF93DF9300D01F92CDB716
:10254000DEB720918404243019F523E029839B838E
:102550008A832093E9008FEF9091E800815095FDE8
:1025600006C095ED9A95F1F700008111F5CF8091A5
:10257000E80085FF0DC040E050E063E070E0CE0170
:1025800001960E94F8148091E8008E778093E8000D
:102590000F900F900F90DF91CF910895CF93DF931D
:1025A00000D01F92CDB7DEB720918404243021F5EE
:1025B00022E029839B838A8383E08093E9008FEF65
:1025C0009091E800815095FD06C095ED9A95F1F740
:1025D00000008111F5CF8091E80085FF0DC040E03B
:1025E00050E063E070E0CE0101960E94F814809103
:1025F000E8008E778093E8000F900F900F90DF91A6
:10260000CF910895209184042430F1F422E02093A6
:10261000E9002FEF3091E800215035FD06C035ED7F
:102620003A95F1F700002111F5CF2091E80025FF40
:102630000BC040E050E065E070E00E94F81480912B
:10264000E8008E778093E8000895CF93DF93EC0144
:1026500080918404843009F046C0909185029923CA
:10266000D9F0909186029923B9F08093E9008FEF19
:102670009091E800815095FD06C095E19A95F1F79B
:1026800000008111F5CF8091E80085FF2CC040E06B
:1026900050E060E170E017C081E08093E9008FEFC7
:1026A0009091E800815095FD06C095ED9A95F1F75F
:1026B00000008111F5CF8091E80085FF14C040E053
:1026C00050E068E070E0CE010E94F8148091E800CC
:1026D0008E778093E80080E1FE01ABEEB3E00190DD
:1026E0000D928A95E1F7DF91CF910895809183044F
:1026F000811109C00E948A160E94E7168091E200AB
:1027000084608093E20008951092830408950895F0
:1027100008950C94592542E061EC81E00E94041672
:1027200042E061EC82E00E94041642E061EC83E04A
:102730000E94041642E161EC84E00C94041680913E
:102740008604833009F455C030F4813071F0823052
:1027500009F48EC008958A3009F47AC08B3009F4E8
:1027600060C0893009F09CC020C080918504813A06
:1027700009F096C08091E800877F8093E8008091FF
:10278000890490918A04892B21F060E080E090E038
:1027900003C060E18BEE93E070E00E9441158091F0
:1027A000E8008B778093E80008958091850481325A
:1027B00009F076C08091890490918A04009719F0FD
:1027C000039709F06DC08091E800877F8093E8004F
:1027D0008091E80082FD05C0809184048111F8CFCA
:1027E0005FC08091F1008093FB038091E8008B77BC
:1027F00053C080918504813A09F052C080918904C8
:1028000090918A04892B09F04BC08091E800877F62
:102810008093E8008091E80080FFFCCF80918502E2
:1028200036C0809185048132D9F5809189049091D8
:102830008A04892BA9F58091E800877F8093E800BE
:102840000E94391680918704809385020C946B1E38
:1028500080918504813221F58091E800877F809303
:10286000E8000E943916809188048093FC03089543
:1028700080918504813AA1F48091E800877F80935C
:10288000E8008091E80080FFFCCF8091FC038093FA
:10289000F1008091E8008E778093E8000C9439165F
:1028A000089584B7877F84BF88E10FB6F89480933A
:1028B0006000109260000FBE80E88093610010926B
:1028C00061000E94D3190E948A160E94E716809127
:1028D000E20084608093E20078940E9462190E9472
:1028E000D5198BE792E00E947F198091840485308E
:1028F00069F40E941B25809182048823B1F30E9411
:102900004825882391F30E94E214EFCF0E94DD193D
:10291000ECCF292F332723303105A9F06CF4213077
:10292000310509F442C02230310509F043C08DE67B
:1029300090E028EB35E042C021323105C9F0223267
:10294000310519F137C099278130910541F0823066
:10295000910541F0892B71F5E4EBF5E005C0E6E85F
:10296000F5E002C0ECE5F5E0849190E09F0126C01F
:10297000643000F5E62FF0E0EE0FFF1FE25EFC4F43
:102980002081318189E090E019C0643098F4E62F0D
:10299000F0E0DF01AA0FBB1FAA5EBC4F2D913C9156
:1029A000EE5EFC4F808190E009C082E190E025E27C
:1029B00036E004C080E090E020E030E0FA013183AE
:1029C0002083089580E189BD82E189BD09B400FEBC
:1029D000FDCF8091D8008F7D8093D8008091E0005A
:1029E00082608093E0008091E00081FDFCCF08953B
:1029F000CF92DF92EF92FF920F931F93CF93DF93CB
:102A00007C018B01EA010E945A16811131C0209786
:102A100031F088819981081B190BE80EF91EC12C31
:102A2000D12C0115110519F18091E80085FD14C024
:102A30008091E8008E778093E800209741F08881AC
:102A400099818C0D9D1D9983888385E011C00E941A
:102A50005A16882331F30CC0F70181917F018093CE
:102A6000F10001501109FFEFCF1ADF0ADACF80E041
:102A7000DF91CF911F910F91FF90EF90DF90CF905A
:102A8000089520918B0430918C042617370748F065
:102A90006115710539F42091E8002E772093E80044
:102AA00001C0B901FC0120E061157105B9F1809107
:102AB0008404882309F440C0853009F43FC0809124
:102AC000E80083FD3DC08091E80082FF06C0809150
:102AD000E80082FF26C080E008958091E80080FF32
:102AE000E3CF2091F3008091F20090E0922B6115EA
:102AF000710551F08830910538F421912093F1004F
:102B0000615071090196F3CF21E0089709F020E0A8
:102B10008091E8008E778093E800C6CF2111C7CF5F
:102B2000D6CF80918404882339F0853039F08091A4
:102B3000E80083FFCCCF04C082E0089583E00895CD
:102B400081E0089520918B0430918C04261737077B
:102B500048F06115710539F42091E8002E77209333
:102B6000E80001C0B901FC0120E061157105C1F167
:102B700080918404882309F441C0853009F440C061
:102B80008091E80083FD3EC08091E80082FF06C08E
:102B90008091E80082FF27C080E008958091E800DE
:102BA00080FFE3CF2091F3008091F20090E0922B20
:102BB0006115710559F08830910540F424912093F6
:102BC000F1003196615071090196F2CF21E008972A
:102BD00009F020E08091E8008E778093E800C5CF6F
:102BE0002111C6CFD5CF80918404882339F0853058
:102BF00039F08091E80083FFCBCF04C082E00895D4
:102C000083E0089581E00895982F973058F59093C8
:102C1000E900981739F07091EC002091ED00509187
:102C2000F00003C0242F762F50E021FF19C030910F
:102C3000EB003E7F3093EB003091ED003D7F309311
:102C4000ED003091EB0031603093EB007093EC00BD
:102C50002093ED005093F0002091EE0027FF07C075
:102C60009F5FD3CF8F708093E90081E0089580E06B
:102C700008958091850487FD05C08091E80080FF5C
:102C80000EC012C08091E80082FD05C080918404CE
:102C90008111F8CF08958091E8008B7708C080916A
:102CA00084048111EACF08958091E8008E778093A3
:102CB000E80008958091E4009091E50045E62091B8
:102CC000EC0020FF21C02091E80020FD21C02091D0
:102CD0008404222389F0253089F02091EB0025FD22
:102CE0000FC02091E4003091E5002817390739F32F
:102CF000415041F0C901E3CF82E0089583E0089597
:102D000081E0089584E008952091E80022FFDFCF5C
:102D100080E008950E94F8160E940017E0EEF0E0AF
:102D2000808181608083E8EDF0E080818F7780830F
:102D300019BCA7EDB0E08C918E7F8C9380818F7E43
:102D400080831092830408950F931F93CF93DF9392
:102D50000E94F8160E940017C8EDD0E088818F7796
:102D6000888388818068888388818F7D888319BC67
:102D700010928404109280041092820410928104B4
:102D800000EE10E0F80180818B7F80838881816074
:102D9000888342E060E080E00E940416E1EEF0E00B
:102DA00080818E7F8083E2EEF0E08081816080838D
:102DB000808188608083F80180818E7F8083888114
:102DC00080618883DF91CF911F910F910895E8ED85
:102DD000F0E080818F7E8083E7EDF0E0808181608C
:102DE000808384E082BF81E0809383040C94A416E6
:102DF000E8EDF0E080818E7F80831092E2000895FC
:102E00001092DA001092E10008951F920F920FB60F
:102E10000F9211242F933F934F935F936F937F9360
:102E20008F939F93AF93BF93EF93FF938091E100B4
:102E300082FF0BC08091E20082FF07C08091E10019
:102E40008B7F8093E1000E9461198091DA0080FFFE
:102E50001FC08091D80080FF1BC08091DA008E7F58
:102E60008093DA008091D90080FF0DC080E189BD98
:102E700082E189BD09B400FEFDCF81E08093840426
:102E80000E94761305C019BC109284040E9484131A
:102E90008091E10080FF19C08091E20080FF15C0A1
:102EA0008091E2008E7F8093E2008091E200806159
:102EB0008093E2008091D80080628093D80019BC92
:102EC00085E0809384040E9488138091E10084FF50
:102ED00030C08091E20084FF2CC080E189BD82E196
:102EE00089BD09B400FEFDCF8091D8008F7D80930D
:102EF000D8008091E1008F7E8093E1008091E20014
:102F00008F7E8093E2008091E20081608093E200F6
:102F100080918004882311F084E007C08091E30051
:102F200087FF02C083E001C081E0809384040E9497
:102F300089138091E10083FF29C08091E20083FF23
:102F400025C08091E100877F8093E10082E080933B
:102F50008404109280048091E1008E7F8093E100D0
:102F60008091E2008E7F8093E2008091E200806198
:102F70008093E20042E060E080E00E9404168091CD
:102F8000F00088608093F0000E948713FF91EF911A
:102F9000BF91AF919F918F917F916F915F914F9171
:102FA0003F912F910F900FBE0F901F9018951F9279
:102FB0000F920FB60F9211242F933F934F935F936D
:102FC0006F937F938F939F93AF93BF93CF93EF9321
:102FD000FF93C091E900CF708091EC001092E9005E
:102FE0008091F000877F8093F00078940E941318FE
:102FF0001092E9008091F00088608093F000C09307
:10300000E900FF91EF91CF91BF91AF919F918F9187
:103010007F916F915F914F913F912F910F900FBED4
:103020000F901F9018951F93CF93DF93CDB7DEB706
:10303000AA970FB6F894DEBF0FBECDBFE5E8F4E067
:103040008091F100819324E0ED38F207C9F70E94E6
:103050009F138091E80083FF1CC12091850430916B
:103060008604832F90E08A30910508F012C1FC019C
:10307000E25AFF4F0C94502F203881F0223809F08B
:1030800008C1809189048F708093E9008091EB00E2
:1030900085FB882780F91092E90006C080918104A1
:1030A00090918204911182609091E800977F9093B3
:1030B000E8008093F1001092F100C5C0822F8D7F4F
:1030C00009F0E7C0222319F0223061F0E2C08091BC
:1030D0008704813009F0DDC0333009F080E080934F
:1030E000820428C080918704811124C02091890422
:1030F0002F7009F4CEC02093E9008091EB0080FF8F
:1031000019C08091EB00333011F4806211C08061EE
:103110008093EB0081E090E0022E01C0880F0A94BA
:10312000EAF78093EA001092EA008091EB00886051
:103130008093EB001092E9008091E800877F86C0C1
:103140002111A7C0109187041F778091E300807838
:10315000812B8093E3008091E800877F8093E800D3
:103160000E9439168091E80080FFFCCF8091E30037
:1031700080688093E300112311F083E001C082E0B6
:103180008093840486C02058223008F082C0809149
:103190008704909188048C3D23E0920779F583E0C1
:1031A0008A838AE289834FB7F894DE01139620E080
:1031B0003EE051E2E32FF0E050935700E49120FF0E
:1031C00003C0E295EF703F5FEF708E2F90E0EA3022
:1031D00010F0C79601C0C0968D939D932F5F243148
:1031E00049F74FBF8091E800877F8093E8006AE24B
:1031F00070E0CE0101960E94411514C0AE014F5FF0
:103200005F4F609189040E948914009709F441C0BE
:103210002091E800277F2093E800BC0189819A81F2
:103220000E94A2158091E8008B778093E80031C05E
:10323000203879F58091E800877F8093E8008091BD
:1032400080048093F1008091E8008E778093E800FD
:103250000E9439161EC021111CC090918704923023
:10326000C0F48091E800877F8093E8009093800409
:103270000E94391680918004811104C08091E3007E
:1032800087FF02C084E001C081E0809384040E9433
:103290008B138091E80083FF0AC08091E800877F4C
:1032A0008093E8008091EB0080628093EB00AA9607
:1032B0000FB6F894DEBF0FBECDBFDF91CF911F9147
:1032C00008950895CF93809184048823B1F080916C
:1032D000E9008F709091EC0090FF02C090E801C06F
:1032E00090E0C92FC82B1092E9008091E80083FD7F
:1032F0000E941318CF70C093E900CF910895909366
:103300000204809301040895E0910104F091020405
:10331000309721F00190F081E02D099480E008952C
:10332000E0910104F0910204309721F00280F381D2
:10333000E02D09940895E0910104F0910204309782
:1033400021F00480F581E02D099408952091FF0378
:10335000309100048217930771F0909300048093DA
:10336000FF03E0910104F0910204309721F0068000
:10337000F781E02D099408952091FD033091FE031B
:103380008217930771F09093FE038093FD03E09101
:103390000104F0910204309721F00084F185E02DC2
:1033A0000994089508950C94D2190E948D250E94C5
:1033B0000A0B0E9413260C94C22A5F926F927F928E
:1033C0008F929F92AF92BF92CF92DF92EF92FF9235
:1033D0000F931F93CF93DF9300D000D01F92CDB7F0
:1033E000DEB70E94560B9CE0C92E94E0D92E03E074
:1033F00010E0AA24A394B12C502E802F0E94D30B4E
:103400003C01F601F290E2906F01E826F926E11402
:10341000F104A1F40150110978F78FEF89838A83B1
:103420001B820E9496258160782F9D838C83498121
:103430005A816B818D810E948D1A38C08091610400
:1034400081FD0E94DC0B2BE030E04501022E02C022
:10345000880C991C0A94E2F7C4018E219F21892BC4
:1034600009F129835A826820792081E0672809F4CC
:1034700080E08B830E9496258160782F9D838C83CA
:1034800049815A816B818D810E948D1AF801EE0F5E
:10349000FF1FEC5FFB4F80819181882599259183E7
:1034A000808304C02150310980F6B4CF0E940128E6
:1034B000109103040E9484191817D1F00E948419F6
:1034C000809303040F900F900F900F900F90DF9157
:1034D000CF911F910F91FF90EF90DF90CF90BF9011
:1034E000AF909F908F907F906F905F900C94B005FD
:1034F0000F900F900F900F900F90DF91CF911F9131
:103500000F91FF90EF90DF90CF90BF90AF909F9082
:103510008F907F906F905F900895CF93DF93CDB79A
:10352000DEB72B970FB6F894DEBF0FBECDBF4F832B
:10353000588769877A878B87DE01119686E0FD01BF
:1035400011928A95E9F785E0FE01379601900D9278
:103550008A95E1F749815A816B817C818D819E81B9
:103560000E943B212B960FB6F894DEBF0FBECDBF55
:10357000DF91CF910895CF93C82F882309F4C1C05C
:10358000823859F40E94841981FDBBC089E30E94EE
:1035900016240E94E02489E30CC0833879F40E9449
:1035A000841980FDAEC083E50E9416240E94E024A9
:1035B00083E50E945624CF910C94E024843859F47A
:1035C0000E94841982FD9DC087E40E9416240E94F7
:1035D000E02487E4EECF8CEF8C0F813A48F48C2FF7
:1035E0000E942E2A81118DC08C2F0E941624E3CFB9
:1035F00080E28C0F883048F4C77081E001C0880FEA
:10360000CA95EAF70E949724D6CF8BE58C0F8330BA
:1036100078F4C53A29F0C63A31F482E890E005C062
:1036200081E890E002C083E890E0CF910C94A61965
:1036300088E58C0F833108F064C0C83A39F1C93A83
:1036400041F1CA3A49F1CB3A51F1CC3A59F1CD3A6C
:1036500061F1C03B69F1CE3A71F1CF3A79F1C13BEA
:1036600081F1C23B89F1C33B91F1C43B99F1C53B68
:10367000A1F1C63BA9F1C73BB1F1C83BB9F1C93BC8
:10368000C1F1CA3BC9F58AE292E038C082EE90E00F
:1036900035C089EE90E032C08AEE90E02FC085EB15
:1036A00090E02CC086EB90E029C087EB90E026C02C
:1036B0008CEC90E023C08DEC90E020C083E891E09A
:1036C0001DC08AE891E01AC082E991E017C084E940
:1036D00091E014C081E292E011C083E292E00EC05A
:1036E00084E292E00BC085E292E008C086E292E0BC
:1036F00005C087E292E002C080E090E0CF910C9498
:10370000BC19CF910895882309F44BC0823859F42D
:103710000E94841981FF45C089E30E9416240E94FB
:10372000E02489E30CC0833871F40E94841980FF7F
:1037300038C083E50E9416240E94E02483E50E949D
:1037400056240C94E024843859F40E94841982FF92
:1037500028C087E40E9416240E94E02487E4EFCF6B
:103760009CEF980F913A58F390E2980F983050F4EC
:10377000877091E001C0990F8A95EAF7892F0E941E
:103780009D24DFCF9BE5980F933020F480E090E0FC
:103790000C94A619885A833120F480E090E00C94B0
:1037A000BC190895882321F00E9497240C94E024EA
:1037B0000895882321F00E949D240C94E02408950C
:1037C0008F929F92AF92BF92CF92DF92EF92FF9231
:1037D0000F931F93CF93DF931F92CDB7DEB74C01AA
:1037E000A62E472FFC01E580E2948FE0E822F280CC
:1037F000FF2021F079830E94B424498149830E94EB
:103800000F244981882381F0FF2071F080E28A0D26
:10381000883050F082E00E94F8230E940F24BB24DD
:10382000B394B826498101C0B12CE42FE295EF7022
:10383000F0E0E859FF4F0C94502F842F807F142F15
:103840001F70882311F01295107FFF2089F011233B
:1038500009F496C180E28A0D883020F4812F0E94FD
:10386000972403C0812F0E94A7240E94E02488C1CE
:103870008A2D0E94831B112309F4BFC180E28A0DA7
:10388000883020F4812F0E949D2403C0812F0E9444
:10389000AD240E94E024B1C1242F207F842F8F709B
:1038A000203211F08295807FAA2021F0F1E0AF163E
:1038B000B1F021C0FF2041F0EE2039F191E0E91292
:1038C00024C00E94C72499C1EE2021F0E1E0EE1649
:1038D00009F493C189830E94CA2489810BC1FF2006
:1038E00029F0F5E0FE1508F488C10FC094E09E159C
:1038F00008F483C1FFC0FF2059F0EE2031F0F4013D
:10390000958190FF3DC19F7095830E94D21B75C128
:10391000EE2009F4EFC03AC1242F26952695237096
:1039200030E02115310521F02130310561F065C10C
:10393000FF2021F08A2D942F937002C080E090E048
:103940000E94A6195AC1FF2021F08A2D942F93704E
:1039500002C080E090E00E94BC194FC18A2DFF2078
:1039600019F00E94092702C00E9471270E94F627C1
:1039700044C1842F837009F04EC0F1103EC12A2D3E
:10398000229526952770220F220F8A2D8F70C82E20
:10399000D12CE12CF12C022E04C0CC0CDD1CEE1C31
:1039A000FF1C0A94D2F7A4FE10C06FE070E080E024
:1039B00090E004C0660F771F881F991F2A95D2F7E1
:1039C000609570958095909503C060E070E0CB01A4
:1039D000242F26952695237030E02230310569F09A
:1039E0002330310589F06C297D298E299F292130CA
:1039F000310571F00E948D2200C16C297D298E292C
:103A00009F290E94A722F9C00E948D22C701B601FA
:103A10000E947322F2C0FF2019F0842F817001C030
:103A20008695882309F4E9C02A2D229526952770CA
:103A3000220F220F8A2D8F70C82ED12CE12CF12C51
:103A4000022E04C0CC0CDD1CEE1CFF1C0A94D2F725
:103A5000A4FE10C06FE070E080E090E004C0660F4C
:103A6000771F881F991F2A95D2F7609570958095CA
:103A7000909503C060E070E0CB01242F2695269539
:103A8000237030E02230310569F02330310589F0B0
:103A90006C297D298E299F292130310571F00E94E2
:103AA0006123ABC06C297D298E299F290E947B232D
:103AB000A4C00E946123C701B6010E9447239DC094
:103AC0000A2D10E0F801E05EF109E531F10508F09A
:103AD00053C0E858FF4F0C94502F1A2D1F70842F9D
:103AE0008F71FF2021F00E94E022812F0ECF0E94D3
:103AF0000123812F0E94D91B80C0FF2049F0F4E0F0
:103B0000FE1508F47AC0842F8F710E94262375C099
:103B100085E08E1508F471C0F6CFFF2039F0842FB0
:103B20008F710E94E02269C0FF20C9F3842F8F713A
:103B30000E94012362C0FF2029F0842F8F710E9410
:103B4000CB225BC00E94C12258C0FF2051F0142F2D
:103B50001F71812F0E94E02263E0812F0E94EF23DA
:103B60004CC081E00E94F82391E09E1508F045C00A
:103B700082E00E94F82341C0FF2031F0EE2079F26C
:103B80008A2D0E94BB1A39C0EE2081F28A2D0E9434
:103B9000831B33C04F706A2DC4010E941C0A0E940F
:103BA000E8212BC0F11029C0942F9F70492F50E0BD
:103BB00042305105B9F04CF44115510581F04130C6
:103BC0005105D9F40E94EA2A18C04330510569F022
:103BD0004430510591F48A2D0E943E2B0EC00E9464
:103BE000D32A0BC00E94062B08C00E94192B05C0C7
:103BF0004F706A2DC4010E941F0ABB20F1F00E9481
:103C0000EB2380FD1AC0F40112820E94E5230E947A
:103C1000E022C4010E942B1E0E94E5230F90DF9139
:103C2000CF911F910F91FF90EF90DF90CF90BF90B9
:103C3000AF909F908F900C9401230F90DF91CF91C4
:103C40001F910F91FF90EF90DF90CF90BF90AF90BA
:103C50009F908F9008950F931F93CF93DF93EC0164
:103C6000288139818B819C81892B31F03F3F11F074
:103C700080E003C02F3FE1F781E0811113C0CE0146
:103C80000E94B805882371F0688179818A810E9439
:103C9000E1238C010E9495230E946822B801CE0185
:103CA0000E94E01BDF91CF911F910F9108950E9418
:103CB000B4240E94C4240E9489240E94E0240E940B
:103CC000A2280E94F62780E090E00E94A61980E0DA
:103CD00090E00C94BC190E94A4240C94571E0E94DE
:103CE000D623292F22952F7030E02C3031054CF44B
:103CF0002A3031056CF42250310922303105B0F4FC
:103D000007C02C30310571F02F30310559F00EC04D
:103D1000803F31F018F4803E48F402C0843F31F413
:103D200081E0089593FB882780F9089580E0089545
:103D3000CF93DF9300D000D01F92CDB7DEB70F90A6
:103D40000F900F900F900F90DF91CF910895CF9328
:103D5000DF9300D000D000D0CDB7DEB726960FB6E7
:103D6000F894DEBF0FBECDBFDF91CF9108951F93B2
:103D7000CF93DF93C0910C0416E080910D04C81717
:103D800099F0D0E01C9FF0011D9FF00D1124E25F1F
:103D9000FB4F4081518162817381848195810E94B2
:103DA000A71E2196C770E9CFDF91CF911F9108958B
:103DB00040913E0450913F04609140047091410451
:103DC00080914204909143040C94A71ECF9380915C
:103DD000430482958F7009F05FC08091400488236E
:103DE00009F45AC020910C04A0910D0460913E0486
:103DF00070913F04809141049091420431E06F3F03
:103E000009F030E0B32FC6E02A1709F445C0009747
:103E100021F07F3F21F44B2F03C041E001C040E07F
:103E200030E040FD35C0C29FF001C39FF00D11246A
:103E3000E25FFB4F418174132BC04081641328C0A3
:103E40004281411125C0438154814817590710F41C
:103E500041505109481B590B483C5105C8F4809109
:103E600043048F7080618093430486E0829FF00159
:103E7000839FF00D1124ED5EFB4F80818F70806178
:103E800080838EE394E00E942B1ECF910C94B71E8A
:103E90002F5F3F4F2770B8CFCF910895CF92DF9219
:103EA000EF92FF920F931F93CF93DF93CDB7DEB7BF
:103EB00062970FB6F894DEBF0FBECDBF8C0185E0D0
:103EC000F801DE011D9601900D928A95E1F7D80167
:103ED0004C9111965C91119712966C9112971396D2
:103EE000ED90FC90149770913E04E0913F04209176
:103EF0004104309142042115310531F0EF3F31F496
:103F000081E07F3F19F403C081E001C080E0B82F59
:103F1000B170CB2E80FD6CC1D0904004DD2009F43F
:103F2000F5C0F0914304E216F30638F0C701821B96
:103F3000930B883C910548F09BC0209530952E0D41
:103F40003F1D283C310508F093C08F2F807F09F07A
:103F500052C0E51314C0741312C0D62E61110FC0E5
:103F6000FF70F061F09343040E94D81E8EE394E04A
:103F70000E942B1E80914304F80185836CC1EF28B9
:103F800031F05F3F31F481E04F3F19F403C081E02D
:103F900001C080E080FD03C081E0862701C080E091
:103FA000F82FF170FF2E80FF1CC080910C0420912F
:103FB0000D0436E0821709F428C190E0389FF00123
:103FC000399FF00D1124E25FFB4F7181571306C03A
:103FD0007081471303C07281671303C00196877015
:103FE000E9CFD62E662309F436C18091430481605F
:103FF0008093430453C0E51308C0741306C06111D5
:1040000004C0D8011596FC93AEC04D875E878D85A0
:104010009E856A8B0E946F1E6A89882329F1D62E9D
:10402000662311F120914304822F82958F7090E0D6
:1040300002970CF460C080913E0490913F049887F1
:104040008F831986FB86EA862C87CE01079651C09E
:10405000E51731F14D875E878D859E856A8B0E94BD
:104060006F1E6A8981112EC0C8010E942B1EA4C038
:104070008F2F807F69F77E2DF98AE88A89890E94CF
:10408000981E8EE394E00E942B1EEEE3F4E086E09F
:10409000DF011D928A95E9F70E94D81ED12CDBC062
:1040A0007413D8CF6111D6CFD8011596FC93C801EF
:1040B0000E942B1EEEE3F4E086E0DF011D928A955C
:1040C000E9F7C9C0D62E662379F220914304822FE6
:1040D00082958F7090E0029774F080913E049091E9
:1040E0003F049A8389831B82FD82EC822E83CE015A
:1040F00001960E942B1E86E0F801AEE3B4E0019029
:104100000D928A95E1F70E94E61E6FC0E216F30653
:1041100028F0C701821B930B9C0104C020953095A9
:104120002E0D3F1D283C310508F052C0D62E6623C7
:1041300009F49ACFE5132CC074132AC0809143046C
:1041400080FD1DC0982F92959F70C9F0D8011596DB
:104150008C9315979F3039F09F5F9295907F8F7069
:10416000892B15968C93C8010E942B1E86E0F801BE
:10417000AEE3B4E001900D928A95E1F736C086E097
:10418000F801AEE3B4E001900D928A95E1F763C0C7
:104190004D875E878D859E850E946F1E882379F0EE
:1041A00086E0F801AEE3B4E001900D928A95E1F764
:1041B0000E94E61E0E94D81EDD24D3944CC080913C
:1041C0004304816080934304C8010E942B1E43C0B6
:1041D0007E2DF98AE88A89890E94981EEEE3F4E030
:1041E00086E0DF011D928A95E9F70E94D81E33C050
:1041F000662309F439CF4D875E878D859E850E94A1
:104200006F1E882309F430CFCBCF4D875E878D8515
:104210009E850E94D623292F22952F7030E02230D0
:1042200031052CF49F7041F0811106C00CC0243080
:1042300031052CF49F7049F4805E883020F0C8016D
:104240000E942B1ECF2CDC2C06C0D80115969C9109
:10425000907F91F7F8CF8D2D62960FB6F894DEBF60
:104260000FBECDBFDF91CF911F910F91FF90EF90C7
:10427000DF90CF9008951F93CF93DF93CDB7DEB734
:104280002C970FB6F894DEBF0FBECDBF4F83588773
:1042900069877A878B879C87CE0107960E944E1F7D
:1042A0008823C1F02F8138858A859B85892B31F041
:1042B0003F3F11F080E003C02F3FE1F781E0811123
:1042C00047C04F81588569857A858B859C850E947A
:1042D000A71E3EC086E0FE013796DE0111960190D2
:1042E0000D928A95E1F7FF81E8854A855B85411546
:1042F000510531F0EF3F31F481E0FF3F19F403C085
:1043000081E001C080E080FD23C020910D0430E0F9
:10431000C90101968770992760910C0470E0861797
:104320009707F1F1F983EA835D834C8396E0929FCE
:10433000D001939FB00D1124A25FBB4FFE013196B7
:1043400001900D929A95E1F780930D040E94B71E9B
:1043500016E080910C0490910D04891779F1189F53
:10436000C0011124825F9B4F0E944E1F882331F1B0
:10437000E0910C041E9FF0011124E25FFB4F40818D
:10438000518162817381848195810E94A71E8091F1
:104390000C0490E001968770992780930C04D9CF84
:1043A0000E946B1E10920D0410920C04EEE3F4E0D8
:1043B00086E0DF011D928A95E9F7CACF2C960FB6E9
:1043C000F894DEBF0FBECDBFDF91CF911F9108954E
:1043D000EF92FF920F931F93CF93DF93FC0100970F
:1043E00009F46FC0F12CEE24E394EF01219684913F
:1043F000843740F4843008F055C0813081F0823039
:1044000021F15FC0853709F447C0C0F19CE7980FE0
:10441000903708F056C08F770E94831B45C08F01EC
:104420000E5F1F4FFE01849190E2980F983050F478
:104430008770FE2D01C0FF0F8A95EAF78F2F0E942B
:10444000B72415C00E94BB1A14C08F010E5F1F4F06
:10445000FE01849190E2980F983068F48770FE2DE9
:1044600001C0FF0F8A95EAF78F2F0E94BD240E949A
:10447000E024E80119C00E94831BFBCFCF01029604
:10448000FE01C491CC2361F0EFE9FFE03197F1F731
:1044900000C00000C150F6CFCF010296FE01F4909B
:1044A000EC0102C00E94BB1A8F2D882341F0EFE976
:1044B000FFE03197F1F700C000008150F6CFFE0118
:1044C00094CFDF91CF911F910F91FF90EF900895BE
:1044D0000895609348047093490480934A0490932C
:1044E0004B040C94571E0F931F9300914804109196
:1044F000490420914A0430914B04062B172B282B9A
:10450000392B009348041093490420934A043093B4
:104510004B041F910F910C94571E0F931F93009102
:1045200048041091490420914A0430914B04062319
:104530001723282339230093480410934904209318
:104540004A0430934B041F910F910C94571E0F9304
:104550001F93009148041091490420914A0430911E
:104560004B04062717272827392700934804109360
:10457000490420934A0430934B041F910F910C94EB
:10458000571E109244041092450410924604109253
:1045900047040C94571E41E050E060E070E004C016
:1045A000440F551F661F771F8A95D2F74093440426
:1045B0005093450460934604709347040C94571E2F
:1045C00041E050E060E070E004C0440F551F661FFA
:1045D000771F8A95D2F78091440490914504A09169
:1045E0004604B0914704842B952BA62BB72B8093C0
:1045F000440490934504A0934604B09347040C945C
:10460000571E41E050E060E070E004C0440F551FC9
:10461000661F771F8A95D2F74095509560957095E3
:104620008091440490914504A0914604B0914704C0
:1046300084239523A623B7238093440490934504B1
:10464000A0934604B09347040C94571E41E050E0F9
:1046500060E070E004C0440F551F661F771F8A9505
:10466000D2F78091440490914504A0914604B09102
:10467000470484279527A627B7278093440490935F
:104680004504A0934604B09347040C94571E0F931F
:104690001F930091440410914504209146043091E9
:1046A0004704062B172B282B392B00934404109317
:1046B000450420934604309347041F910F910C94B6
:1046C000571E0F931F9300914404109145042091AD
:1046D00046043091470406231723282339230093E7
:1046E00044041093450420934604309347041F91DB
:1046F0000F910C94571E0F931F9300914404109137
:10470000450420914604309147040627172728279F
:1047100039270093440410934504209346043093B2
:1047200047041F910F910C94571E0895CF92DF926A
:10473000EF92FF920F931F93CF93DF93EC01C09002
:104740004804D0904904E0904A04F0904B048091D2
:10475000440490914504A0914604B0914704C82AAE
:10476000D92AEA2AFB2A0FE110E0B701A601002EA0
:1047700004C076956795579547950A94D2F740FD02
:1047800005C00150110988F780E007C0BE01802FE5
:104790000E947B080197A9F3802FDF91CF911F9191
:1047A0000F91FF90EF90DF90CF900895CF93DF931C
:1047B000EC010E949623BE010E947B08DF91CF91FD
:1047C0000895CB010E94D623089580914C048595CD
:1047D00085958595089580914C048770089598E09B
:1047E000899F90011124622B60934C040C94E02269
:1047F00040914C048095842380934C04982F9770AB
:1048000069F450E0282F332727FD309542175307CE
:1048100029F08595859585950C94012308959091AF
:104820004C04977081E009F480E00895909185022E
:104830009923D9F0909186029923B9F0982F9695F3
:10484000969596959F3088F5E0918702F0918802C1
:10485000E90FF11D877021E030E001C0220F8A9539
:10486000EAF78181822B81830895409187025091DC
:10487000880220E030E09FEFFA01E20FF31F62812F
:10488000681799F09F3F19F4611101C0922F2F5FB3
:104890003F4F2E30310581F79F3F39F0FA01E90F84
:1048A000F11D97FDFA9582830895089590918502F0
:1048B0009923E1F0909186029923C1F0982F969563
:1048C000969596959F3020F5E0918702F0918802A9
:1048D000E90FF11D877021E030E001C0220F8A95B9
:1048E000EAF720958181282321830895409187024A
:1048F0005091880220E030E0FA01E20FF31F92812C
:10490000981301C012822F5F3F4F2E303105A1F75F
:10491000089581E090E0E0918702F0918802E80F2D
:10492000F91F1082019680319105A9F708959091A1
:104930006004982B90936004089580959091600492
:1049400098239093600408951092600408959091C4
:104950005F04982B90935F040895809590915F0475
:10496000982390935F04089510925F0408959091A6
:104970005E04982B90935E040895809590915E0458
:10498000982390935E04089510925E040895809396
:104990004D04089510924D0408954091870250915E
:1049A000880220E030E080E0FA01E20FF31F9181FD
:1049B00091118F5F2F5F3F4F2F303105A9F7089579
:1049C000E0918702F0918802809160048083E091F9
:1049D0008702F0918802808190915F04892B808307
:1049E000E0918702F0918802808190915E04892B8A
:1049F000808390914D04992361F0E0918702F091BA
:104A000088028081892B80830E94CD24811110929D
:104A10004D0480918702909188020C94901940E097
:104A2000009739F09C0121503109822393234F5F75
:104A3000F7CF842F089580918404843039F1109247
:104A4000620420E488E190E00FB6F894A895809382
:104A500060000FBE2093600080E00E947F0580E030
:104A60000E94B00583B7817F846083BF83B7816074
:104A700083BF7894889583B78E7F83BF88E10FB614
:104A8000F89480936000109260000FBE089508951E
:104A900080E00E947F050E94C50A0E94560B0E947A
:104AA00047250E94DD0B91E0811101C090E0892F24
:104AB00008950E946B1E80E00E947F050E94C22A1A
:104AC0000E9484190C94B0051F920F920FB60F929A
:104AD00011248F939F93AF93BF93809162048111B0
:104AE00013C08091630490916404A0916504B09117
:104AF00066044196A11DB11D8093630490936404E4
:104B0000A0936504B0936604BF91AF919F918F917C
:104B10000F900FBE0F901F90189582E084BD93E018
:104B200095BD9AEF97BD80936E0008952FB7F894C6
:104B30008091630490916404A0916504B09166042F
:104B40002FBF0895CF92DF92EF92FF920F931F93A2
:104B50002FB7F89440916304509164046091650408
:104B6000709166042FBF6A017B01EE24FF248C0143
:104B700020E030E0C016D106E206F30610F4415002
:104B80005109481B590BCA011F910F91FF90EF90DB
:104B9000DF90CF9008951F920F920FB60F921124BD
:104BA0008F939F93AF93BF9380916304909164041C
:104BB000A0916504B09166040196A11DB11D80937A
:104BC000630490936404A0936504B0936604BF915A
:104BD000AF919F918F910F900FBE0F901F901895DE
:104BE0000E948A16F8942FEF87EA91E621508040C0
:104BF0009040E1F700C0000087E090EBDC0180937B
:104C00008E0490938F04A0939004B09391042CE0B1
:104C100088E190E00FB6F894A895809360000FBEED
:104C200020936000FFCF0E945526811102C00E9490
:104C300031260E946026809361040E946D2690E0D8
:104C4000909373048093720487FB882780F9809384
:104C500086020E946426682F70E080E090E00C9449
:104C600069226DEE7EEF80E090E00E94762F60E09A
:104C700082E090E00E94642F60E083E090E00E9478
:104C8000642F60E084E090E00E94642F60E085E0A3
:104C900090E00E94642F60E086E090E00E94642F24
:104CA0006FEF87E090E00C94642F80E090E00E942A
:104CB0005E2F21E08D3E9E4F09F020E0822F089567
:104CC00082E090E00C94562F83E090E00C94562FF5
:104CD000682F83E090E00C94642F84E090E00C94C3
:104CE000562F682F84E090E00C94642F86E090E0CB
:104CF0000C94562F682F86E090E00C94642F87E088
:104D000090E00C94562F682F87E090E00C94642F6D
:104D10008091690480FF0BC060918C0285E0689FE0
:104D2000B001112475956795759567952AC081FF27
:104D300009C060918C0285E0689FB00111247595CF
:104D400067951FC082FF07C060918C0285E0689F55
:104D5000B001112416C040916A044423C9F0609147
:104D60008B02461788F720918C0285E0289F9001DE
:104D70001124429FC001439F900D112470E00E94B6
:104D80003C2F6038710540F46115710539F002C09F
:104D900065E070E0862F08958FE7089581E008951B
:104DA0008091690480FF08C060918A0270E0759567
:104DB00067957595679521C081FF06C060918A024D
:104DC00070E07595679519C082FF04C060918A02F2
:104DD00070E010C080916A048823C1F0609189025C
:104DE0008617A0F790918A02989FC001112470E065
:104DF0000E943C2F6038710528F46115710521F07F
:104E0000862F08958FE7089581E0089561E070E0AE
:104E1000F4CF803F21F40E948826819504C0813F11
:104E200029F40E94882680936D040895823F21F41E
:104E30000E948826819504C0833F29F40E94882619
:104E400080936C040895893F19F40E94D02605C010
:104E50008A3F31F40E94D026819580936E04089594
:104E60008B3F21F40E94D026819504C08C3F29F409
:104E70000E94D02680936F040895843F21F480918E
:104E80006B04816017C0853F21F480916B048260C0
:104E900011C0863F21F480916B0484600BC0873F72
:104EA00021F480916B04886005C0883F31F48091C3
:104EB0006B04806180936B0408958D3F21F4809191
:104EC000690481600BC08E3F21F480916904826087
:104ED00005C08F3F29F48091690484608093690440
:104EE0000895803F39F480916D0487FF6CC0109263
:104EF0006D0469C0813F29F480916D041816BCF3DC
:104F000062C090916C04823F29F497FF5CC01092BC
:104F10006C0459C0833F19F41916CCF354C0893F6F
:104F200041F480916E0418160CF04DC010926E047E
:104F30004AC08A3F29F480916E0487FF44C0F6CFAF
:104F40008B3F39F480916F0487FF3DC010926F044E
:104F50003AC08C3F29F480916F041816BCF333C01B
:104F6000843F21F480916B048E7F17C0853F21F42C
:104F700080916B048D7F11C0863F21F480916B047A
:104F80008B7F0BC0873F21F480916B04877F05C026
:104F9000883F31F480916B048F7E80936B0413C043
:104FA0008D3F21F4809169048E7F0BC08E3F21F4E8
:104FB000809169048D7F05C08F3F29F48091690439
:104FC0008B7F8093690480916C0481110EC0809165
:104FD0006D0481110AC080916E04811106C0809118
:104FE0006F04811102C010926A0408958BE694E068
:104FF0000E949B190E9496259093680480936704F1
:1050000008951F93CF93DF93809167049091680474
:105010000E94A22540916A04442321F020918D0230
:1050200030E006C020918E025AE0259F90011124A5
:105030008217930708F482C080916C0410916D046C
:10504000D0916E04C0916F04811107C0111105C089
:10505000D11103C0CC2309F471C04F3F19F04F5F49
:1050600040936A04181624F40E94882680936C04E6
:1050700080916C0487FF05C00E94882681958093EB
:105080006C04111624F40E94882680936D0480918C
:105090006D0487FF05C00E948826819580936D046A
:1050A00060916C04662339F110916D04112319F19C
:1050B000772767FD7095872F972F0E945E2C23E33B
:1050C00033E343E35FE30E946E2D0E942B2C609339
:1050D0006C04612F772767FD7095872F972F0E94AB
:1050E0005E2C23E333E343E35FE30E946E2D0E94D3
:1050F0002B2C60936D041D1624F40E94D0268093FF
:105100006E0480916E0487FF05C00E94D0268195B1
:1051100080936E041C1624F40E94D02680936F04A2
:1051200080916F0487FF05C00E94D02681958093EF
:105130006F04DF91CF911F910C94F627DF91CF91EF
:105140001F910895EBE6F4E085E0DF011D928A955A
:10515000E9F710926A04109269040895833081F18E
:1051600028F4813059F08230D1F00895853009F467
:1051700049C0B8F1863009F456C0089520918E02D6
:10518000862F90E0820F911D8F3F910520F4620FD2
:1051900060938E0208958FEF80938E020895209180
:1051A0008D02862F90E0820F911D8F3F910520F494
:1051B000620F60938D0208958FEF80938D020895A2
:1051C00020918C02862F90E0820F911D8F3F9105D8
:1051D00020F4620F60938C0208958FEF80938C020D
:1051E000089520918B02862F90E0820F911D8F3FB2
:1051F000910520F4620F60938B0208958FEF8093E6
:105200008B02089520918A02862F90E0820F911DD3
:105210008F3F910520F4620F60938A0208958FEF0B
:1052200080938A02089520918902862F90E0820F50
:10523000911D8F3F910520F4620F609389020895BC
:105240008FEF809389020895833011F128F4813023
:1052500049F0823091F00895853081F120F1863057
:10526000C1F1089580918E02681720F4861B809307
:105270008E02089510928E02089580918D02681713
:1052800020F4861B80938D02089510928D0208955C
:1052900080918C02681720F4861B80938C020895FD
:1052A00010928C02089580918B02681720F4861B5F
:1052B00080938B02089510928B02089580918A0248
:1052C000681720F4861B80938A02089510928A0240
:1052D000089580918902681720F4861B80938902C3
:1052E0000895109289020895873220F58E3108F0D2
:1052F0008EC0803109F46FC070F4873009F447C064
:1053000018F4863089F12EC08B3009F496C08E30A7
:1053100009F457C027C0863109F48FC020F48131C9
:1053200009F46AC01FC0893109F487C08B3109F4C0
:105330003EC018C0883309F480C050F4893209F4A3
:1053400074C0853309F471C0873209F46EC00AC095
:10535000833409F46AC020F48A3308F056C002C0CE
:10536000883461F080E0089580916104817F8E7FB0
:105370008093610481E08093710408950E946B1E04
:105380000E940B0C0E94A6040E94F02556C090912A
:105390006104892F8095817080FB90F919F09660E7
:1053A000986027C0997F977F9093610446C0909141
:1053B000610491FB882780F921E0822780FB91F925
:1053C00013C09091610492FB882780F921E0822725
:1053D00080FB92F909C09091610493FB882780F9C2
:1053E00021E0822780FB93F990936104882329F1BF
:1053F00091609093610408950E946B1E80918602D3
:1054000091E089278093860218C027EC01C023EE23
:10541000280F61E070E080E090E004C0660F771F25
:10542000881F991F2A95D2F704C061E070E080E0E0
:1054300090E00E9469220E946B1E81E0089580E046
:10544000089580E008958E518A3030F4E82FF0E01E
:10545000EA5DFC4F8081089580E00895CF93C82FC6
:1054600080917104813069F018F08230B1F180C010
:10547000E0918702F09188028081823209F07AC03F
:1054800007C0E0918702F09188028081823249F45E
:105490008C2F0E941F2A81111DC08C2F0E947429FD
:1054A0001AC08C2F0E94212A811114C0C43179F0B6
:1054B00048F4CB3079F0C03109F060C082E08093CD
:1054C000710408C0C93219F0C83321F057C01092D6
:1054D000710454C081E0817053C0C93289F118F55C
:1054E000C43171F1B0F4C73009F046C08EE1809349
:1054F0008E0282E380938D028AE080938C0284E1A5
:1055000080938B0288E080938A0288E280938902EC
:1055100033C082EE8C0F863078F58C2F0E94232AC0
:105520008093700429C0CE34E9F020F4CB3421F507
:105530006AE013C0C13579F0C235F1F461E00DC005
:1055400080917004882319F01092700415C081E0D6
:105550008093710415C061E006C0809170040E94C0
:10556000AE280AC06AE0809170040E94242904C019
:105570001092710480E004C081E002C080E0ABCFF3
:10558000CF9108950E945526811102C00E943126B4
:105590000E94762680938D0480FF02C0869501C00C
:1055A00080E00C947F0580918D04982F9695292F8B
:1055B00030E0233031054CF49F5F990F8170892BC7
:1055C000816080938D040E947A2680918D04869557
:1055D0000C947F0580918D04982F969591F09158A9
:1055E000990F8170892B80938D048E7F91E009F44F
:1055F00090E080918D0490FB80F980938D040E944F
:105600007A2680918D0486950C947F0580918D0477
:10561000982F909590FB80F980938D040E947A26B4
:1056200080918D0480FF02C0869501C080E00C94BB
:105630007F0530918D04232F26952F5F2F77822FA2
:1056400090E0317004972CF4220F232B20938D04CB
:1056500002C030938D0480918D048E7F91E009F417
:1056600090E080918D0490FB80F980938D040E94DE
:105670007A2680918D0486950C947F0520918D0467
:10568000922F96959827990F822F8170892B80935E
:105690008D048E7F91E009F490E080918D0490FB61
:1056A00080F980938D040E947A2680918D048695DE
:1056B0000C947F055058BB27AA270ED0D1C1C2D168
:1056C00030F0C7D120F031F49F3F11F41EF4B7C180
:1056D0000EF4E095E7FB9FC1E92FD3D180F3BA1711
:1056E000620773078407950718F071F49EF5EBC104
:1056F0000EF4E0950B2EBA2FA02D0B01B9019001ED
:105700000C01CA01A0011124FF27591B99F0593F30
:1057100050F4503E68F11A16F040A22F232F342F78
:105720004427585FF3CF469537952795A795F040C6
:105730005395C9F77EF41F16BA0B620B730B840BDB
:10574000BAF09150A1F0FF0FBB1F661F771F881F93
:10575000C2F70EC0BA0F621F731F841F48F48795EB
:1057600077956795B795F7959E3F08F0B3CF9395DA
:10577000880F08F09927EE0F97958795089527D100
:1057800008F481E008950CD06BC163D140F05AD188
:1057900030F021F45F3F19F03EC1511195C14FC166
:1057A00070D198F39923C9F35523B1F3951B550B89
:1057B000BB27AA2762177307840738F09F5F5F4FE4
:1057C000220F331F441FAA1FA9F333D00E2E3AF025
:1057D000E0E830D091505040E695001CCAF729D03F
:1057E000FE2F27D0660F771F881FBB1F261737078E
:1057F0004807AB07B0E809F0BB0B802DBF01FF27BE
:1058000093585F4F2AF09E3F510568F004C15CC178
:105810005F3FECF3983EDCF3869577956795B795F7
:10582000F7959F5FC9F7880F911D9695879597F912
:105830000895E1E0660F771F881FBB1F621773078B
:105840008407BA0720F0621B730B840BBA0BEE1FA0
:1058500088F7E095089504D06894B11135C1089592
:1058600018D188F09F5790F0B92F9927B751A0F021
:10587000D1F0660F771F881F991F1AF0BA95C9F7E4
:1058800012C0B13081F01FD1B1E008951CC1672F63
:10589000782F8827B85F39F0B93FCCF38695779594
:1058A0006795B395D9F73EF490958095709561957D
:1058B0007F4F8F4F9F4F0895E89409C097FB3EF4A8
:1058C00090958095709561957F4F8F4F9F4F99234D
:1058D000A9F0F92F96E9BB279395F69587957795CB
:1058E0006795B795F111F8CFFAF4BB0F11F460FF8B
:1058F0001BC06F5F7F4F8F4F9F4F16C0882311F0E3
:1059000096E911C0772321F09EE8872F762F05C0F6
:10591000662371F096E8862F70E060E02AF09A9591
:10592000660F771F881FDAF7880F9695879597F986
:10593000089588D018F011F08CD038F480C0C4C01D
:10594000E92F9FD0B0F35523C9F3E7FB6217730724
:1059500084079507A8F199F3E92FFF2788232AF0F8
:105960003197660F771F881FDAF7952F5527442345
:1059700032F091505040220F331F441FD2F7BB2703
:10598000E91BF50B621B730B840BB109C1F222F406
:10599000620F731F841FB11D31972AF0660F771FA6
:1059A000881FBB1FEFCF915050405AF041F0882321
:1059B00032F0660F771F881F91505040C1F79395C2
:1059C00030C08695779567959F5FD9F7F8CF990F87
:1059D0000008550FAA0BE0E8FEEF16161706E807B9
:1059E000F907C0F012161306E407F50798F0621BDA
:1059F000730B840B950B39F40A2661F0232B242BAF
:105A0000252B21F408950A2609F4A140A6958FEFCD
:105A1000811D811D089597F99F6780E870E060E01F
:105A200008959F3F31F0915020F4879577956795C1
:105A3000B795880F911D9695879597F908959FEFD3
:105A400080EC089500240A94161617061806090615
:105A5000089500240A9412161306140605060895E4
:105A6000092E0394000C11F4882352F0BB0F40F46C
:105A7000BF2B11F460FF04C06F5F7F4F8F4F9F4FAC
:105A8000089557FD9058440F551F59F05F3F71F02E
:105A90004795880F97FB991F61F09F3F79F0879595
:105AA0000895121613061406551FF2CF4695F1DF1E
:105AB00008C0161617061806991FF1CF86957105AE
:105AC000610508940895E894BB2766277727CB01E2
:105AD00097F908957CDF08F48FEF08950BD0C0CFBD
